:020000040800F2
:10000000A81800242D040008E12F00085B2E00082A
:10001000DD2F000877060008853600080000000084
:100020000000000000000000000000006D03000858
:100030007B06000800000000C9030008E93300083F
:100040004704000847040008470400084704000864
:100050004704000847040008470400084704000854
:100060004704000847040008470400084704000844
:100070004704000847040008470400084704000834
:100080004704000847040008470400084704000824
:100090004704000847040008470400084704000814
:1000A0004704000847040008470400084704000804
:1000B00047040008470400084704000847040008F4
:1000C00047040008470400084704000847040008E4
:1000D00047040008470400084704000847040008D4
:1000E0004704000847040008000000004704000817
:1000F00047040008470400084704000847040008B4
:1001000047040008470400084704000847040008A3
:100110004704000847040008953500084704000814
:100120004704000847040008470400084704000883
:100130004704000847040008470400084704000873
:1001400000000000000000000000000000000000AF
:100150004704000847040008470400084704000853
:100160004704000847040008470400084704000843
:100170004704000847040008470400080000000086
:100180004704000847040008470400084704000823
:100190004704000847040008470400084704000813
:1001A0004704000847040008470400080000000056
:1001B00047040008470400084704000847040008F3
:1001C0004704000847040008000000000000000089
:1001D00000000000000000004704000800000000CC
:1001E000000000000000000000000000000000000F
:1001F0000000000000000000470400084704000859
:1002000047040008470400080000000047040008F5
:100210004704000847040008470400084704000892
:100220004704000800000000470400080000000028
:1002300047040008470400080000000047040008C5
:100240004704000847040008470400084704000862
:100250004704000847040008470400084704000852
:100260004704000847040008470400084704000842
:100270004704000847040008470400080000000085
:100280004704000847040008470400084704000822
:1002900000000000470400084704000800000000B8
:1002A0000000000047040008470400084704000855
:1002B00047040008470400084704000847040008F2
:1002C00047040008470400084704000800F002F84B
:1002D00000F03CF80AA090E8000C82448344AAF1A4
:1002E0000107DA4501D100F031F8AFF2090EBAE8A2
:1002F0000F0013F0010F18BFFB1A43F0010318475A
:100300003055000060550000103A24BF78C878C10D
:10031000FAD8520724BF30C830C144BF04680C600B
:10032000704700000023002400250026103A28BF53
:1003300078C1FBD8520728BF30C148BF0B60704757
:100340001FB505F035FA1FBD10B510BD00F059F905
:100350001146FFF7F5FF03F015FA00F077F903B443
:10036000FFF7F2FF03BC00F07FF900002C4B196887
:100370000868B0E8F04F80F30988BFF36F8F4FF043
:10038000000080F3118870470000000008480068F2
:10039000006880F308884FF0000080F3148862B68C
:1003A00061B6BFF34F8FBFF36F8F00DF00BF00BF99
:1003B00008ED00E0DFF80C00016841F47001016015
:1003C000704700BF88ED00E0EFF30980BFF36F8F47
:1003D000134B1A681EF0100F08BF20ED108A20E999
:1003E000F04F106009B44FF0500080F31188BFF354
:1003F0004F8FBFF36F8F04F0D7FA4FF0000080F3F8
:10040000118809BC19680868B0E8F04F1EF0100F99
:1004100008BFB0EC108A80F30988BFF36F8F704774
:100420001C000024EFF30580704700000948804756
:1004300009480047FEE7FEE7FEE7FEE7FEE7FEE7C6
:10044000FEE7FEE7FEE7FEE704480549054A064BDE
:1004500070470000B5340008CD020008A80E002443
:10046000A8180024A8100024A8100024032A40F291
:10047000308010F0030C00F0158011F8013BBCF146
:10048000020F624498BF11F801CB00F8013B38BF5E
:1004900011F8013BA2F1040298BF00F801CB38BF6C
:1004A00000F8013B11F0030300F05780083AC0F058
:1004B000088051F8043B083A51F804CBA0E8081032
:1004C000F5E7121D5CBF51F8043B40F8043BAFF365
:1004D0000080D20724BF11F8013B11F801CB48BFBF
:1004E00011F8012B24BF00F8013B00F801CB48BFF5
:1004F00000F8012B704702F0FF0343EA032242EAAF
:10050000024200F05EB84FF0000200B51346944678
:100510009646203922BFA0E80C50A0E80C50B1F15B
:100520002001BFF4F7AF090728BFA0E80C5048BF6F
:100530000CC05DF804EB890028BF40F8042B08BF0D
:10054000704748BF20F8022B11F0804F18BF00F809
:10055000012B704770477047704710B5203AC0F0C4
:100560000B80B1E81850203AA0E81850B1E81850B4
:10057000A0E81850BFF4F5AF5FEA027C24BFB1E8F1
:100580001850A0E8185044BF18C918C0BDE8104062
:100590005FEA827C24BF51F8043B40F8043B08BF6B
:1005A0007047D20728BF31F8023B48BF11F8012B32
:1005B00028BF20F8023B48BF00F8012B70474FF0DE
:1005C00000020429C0F0128010F0030C3FF49DAF2C
:1005D000CCF1040CBCF1020F18BF00F8012BA8BF2E
:1005E00020F8022BA1EB0C01FFF78FBF5FEAC17C63
:1005F00024BF00F8012B00F8012B48BF00F8012BA5
:100600007047754600F02CF8AE4605006946534623
:1006100020F00700854618B020B5FFF715FFBDE8AC
:1006200020404FF000064FF000074FF000084FF059
:10063000000B21F00701AC46ACE8C009ACE8C009EA
:10064000ACE8C009ACE8C0098D46704710B5044657
:10065000AFF300802046BDE81040FFF780BE0000E9
:1006600000487047480E002401491820ABBEFEE741
:1006700026000200704700BFFEE7704772B600BF59
:10068000FEE70000F8B502460B4600216D4DD2E0B2
:1006900001278F401E6806EA0704002C72D01E79DD
:1006A00006F00306012E04D01E7906F00306022E82
:1006B00013D190684F000326BE40B0434F00DE6860
:1006C000BE4030439060506801268E40B0431E7992
:1006D000C6F300168E40304350601E7906F00306C4
:1006E000032E09D0D0684F000326BE40B0434F0010
:1006F0009E68BE403043D0601E7906F00306022E8D
:1007000013D1CF0802F1200656F827004E07F70E46
:100710000F26BE40B0434F07FF0E1E69BE40304358
:10072000CF0802F1200646F8270010684F00032684
:10073000BE40B0431E7906F003064F00BE40304372
:1007400010605E6806F44036002E73D000BF3E4E47
:10075000366846F002063C4F3E603E46366806F07C
:100760000206009600BF00BF384E8F0856F82700DB
:100770008E07370F0F26BE40B043354EB24202D12E
:10078000002629E056E0334EB24201D1012623E093
:10079000314EB24201D102261EE0304EB24201D1AA
:1007A000032619E02E4EB24201D1042614E02D4E4C
:1007B000B24201D105260FE02B4EB24201D10626EE
:1007C0000AE02A4EB24201D1072605E0284EB24285
:1007D00001D1092600E00A268F073F0FBE403043B3
:1007E0001A4E8F0846F827004FF0B0463068A043F5
:1007F0005E6806F4801606B120434FF0B0463060C4
:100800007068A0435E6806F4001606B120434FF0FE
:10081000B04670606868A0435E6806F4003606B1B2
:10082000204368602868A0435E6806F4803606B1FD
:1008300020432860491C1E68CE40002E7FF428AF5C
:10084000F8BD000080000058F44402580804005825
:10085000000002580004025800080258000C025818
:10086000001002580014025800180258001C0258C8
:10087000002402580AB1816101E00B0483617047D2
:100880000148006870470000080000240348006821
:1008900003490978084401490860704708000024AA
:1008A0001000002410B5032000F04AF901F0EEF921
:1008B00010490968C1F303210F4A515C01F01F017F
:1008C00020FA01F40B48006800F00F001146085CA4
:1008D00000F01F0024FA00F008490860084804608E
:1008E0000F2000F00FF808B1012010BD00F0BEF895
:1008F0000020FAE7184402580458000818000024A1
:1009000014000024F0B58BB00446102C0AD200224B
:100910002146362000F0D6F8362000F0BFF81C48FB
:10092000046002E001200BB0F0BD00BF1948006870
:1009300040F01000174908600846006800F01000F9
:10094000019000BF00BF02A903A801F031F9089E81
:100950001EB901F089F9054602E001F085F945006C
:100960000D48B5FBF0F0471E0C480D49086040F2F9
:10097000E7310B48C160476000210161816002F0EE
:10098000E0F818B9064802F015F9CCE70120CAE7EB
:100990000C000024E844025840420F0000100040C0
:1009A000280100244178154A11600178F9B1121D1F
:1009B00041681160017B0907C27A41EA0261827ACB
:1009C00041EAC241427B41EA8241827B41EA4241A3
:1009D000C27B41EA0241427A41EA0221027A41EABB
:1009E000420102781143054A0832116005E00021F6
:1009F000024A121D1160121D1160704798ED00E04F
:100A000000BF00BF00BFBFF35F8F00BF00BF00BFCC
:100A10000548006820F4803003490860002002493E
:100A2000703108607047000024ED00E040F00101E3
:100A30000D4A11600C497039096841F480310A4A45
:100A4000703A116000BF00BF00BFBFF34F8F00BFFF
:100A500000BF00BF00BF00BF00BFBFF36F8F00BF6C
:100A600000BF00BF7047000094ED00E008B500BF74
:100A70000948006840F0020007490860084600681D
:100A800000F00200009000BF00BF00220F21901E66
:100A900000F018F808BD0000F4440258014608466A
:100AA00000280DDB00BF00BF00F01F0301229A40A9
:100AB00043099B0003F1E023C3F8002100BF00BFFE
:100AC00000BF70472DE9F05F80460D46164602F0E4
:100AD00033FE074639462A46334601F00700C0F187
:100AE000070ABAF1040F02D94FF0040A01E0C0F17D
:100AF000070AD14600F1040ABAF1070F02D24FF0FB
:100B0000000A01E0A0F1030AD4464FF0010A0AFAF4
:100B100009FAAAF1010A0AEA020A0AFA0CFA4FF0E3
:100B2000010B0BFA0CFBABF1010B0BEA030B4AEACE
:100B30000B042146404602F007FEBDE8F09F00008E
:100B400000BF00F00702064B19684FF6FF0319407B
:100B5000044B0B4343EA0221014B196000BF70476D
:100B60000CED00E00000FA0570B504461548006879
:100B7000C0F3800048B91348006800F00700A042A5
:100B800001D0012070BD0020FCE70E48006820F075
:100B9000070020430B490860FFF772FE054607E097
:100BA000FFF76EFE401BB0F57A7F01D90120E9E71F
:100BB000044808380068C0F340300028F0D0002016
:100BC000E0E700000C4802582DE9F04104460025FA
:100BD000A8464FF00062D4E90010114000201346EF
:100BE00059404040014331D1606E48B1B0F5801F9B
:100BF0000DD0B0F5001F11D0B0F5401F16D114E094
:100C0000FE48006840F40030FC49086010E0022112
:100C100004F1080002F0E6F9054609E0022104F1BA
:100C2000280002F091FA054602E001E0012500BF2C
:100C300000BF55B9F1482430006820F44010616EBF
:100C40000843EE492431086000E0A8464FF4807262
:100C5000D4E90010114000201346594040400143A0
:100C60002ED1A06D05281BD2DFE800F0030A111871
:100C70001900E248006840F40030E049086011E0E3
:100C8000002104F1080002F0ADF905460AE0002158
:100C900004F1280002F058FA054603E002E001E002
:100CA000012500BF00BF55B9D4482430006820F0AA
:100CB0000700A16D0843D1492431086000E0A8462F
:100CC0004FF48062D4E900101140002013465940CF
:100CD000404001433DD1D4F8A400B0F5C00F24D06A
:100CE00007DC68B1B0F5001F11D0B0F5800F1FD13F
:100CF00014E0B0F5000F19D0B0F5200F18D116E0B0
:100D0000BE48006840F40030BC49086012E0002191
:100D100004F1080002F066F905460BE0002104F139
:100D2000280002F011FA054604E003E002E001E0C9
:100D3000012500BF00BF5DB9B0482C30006820F429
:100D40006000D4F8A4100843AC492C31086000E0DE
:100D5000A8464FF40062D4E9000110400021134678
:100D60005840494008433DD1D4F8A800B0F1407F35
:100D700024D007DC68B1B0F1807F11D0B0F1007FE2
:100D80001FD114E0B0F1806F19D0B0F1A06F18D16D
:100D900016E09A48006840F400309849086012E074
:100DA000002104F1080002F01DF905460BE00021C6
:100DB00004F1280002F0C8F9054604E003E002E06F
:100DC00001E0012500BF00BF5DB98C482C300068F0
:100DD00020F0E060D4F8A810084388492C3108605E
:100DE00000E0A8464FF00073D4E90010194000203D
:100DF00059404040014328D1E06CA8B1102804D0EC
:100E0000202809D0302810D10DE07C48006840F43B
:100E100000307A4908600AE0022104F1080002F07B
:100E2000E1F8054603E002E001E0012500BF00BF54
:100E300055B972482030006820F03000E16C08435A
:100E40006E492031086000E0A8464FF48053D4E991
:100E500000101940002059404040014337D1E06D57
:100E6000B0F5005F1AD004DC50B1B0F5805F1ED140
:100E70000DE0B0F5405F18D0B0F5804F17D115E008
:100E80005E48006840F400305C49086011E00021D1
:100E900004F1080002F0A6F805460AE0002104F17A
:100EA000280002F051F9054603E002E001E00125C7
:100EB00000BF00BF55B951482430006820F4E0401D
:100EC000E16D08434D492431086000E0A8464FF425
:100ED0000053D4E90010194000205940404001431C
:100EE00035D1206EB0F5403F1ED007DC68B1B0F5BB
:100EF000803F0BD0B0F5003F19D10EE0B0F5802F48
:100F000013D0B0F5A02F12D110E012E0012104F1AE
:100F1000080002F067F805460BE0012104F1280003
:100F200002F012F9054604E003E002E001E00125C9
:100F300000BF00BF55B931482430006820F4E020DC
:100F4000216E08432D492431086000E0A8464FF483
:100F50008042D4E900011040002113465840494026
:100F6000084337D1D4F8AC00B0F1405F1ED007DCA5
:100F700068B1B0F1805F0BD0B0F1005F19D10EE025
:100F8000B0F1804F13D0B0F1A04F12D110E012E0B9
:100F9000012104F1080002F025F805460BE00121CB
:100FA00004F1280002F0D0F8054604E003E002E076
:100FB00001E0012500BF00BF5DB910482C3000687A
:100FC00020F0E040D4F8AC1008430C492C31086004
:100FD00000E0A8464FF40043D4E900011840002186
:100FE0005840494008432AD1E06EB8B1B0F1805F63
:100FF00006D0B0F1005F12D109E000002C44025885
:10100000F948006840F40030F749086009E0012120
:1010100004F1080001F0E6FF054602E001E00125C9
:1010200000BF00BF55B9F0482430006820F04050A0
:10103000E16E0843EC492431086000E0A8464FF017
:101040008073D4E90010194000205940404001430A
:1010500028D1A06CA8B1012804D0022809D0032807
:1010600010D10DE0E048006840F40030DE4908602F
:101070000AE0022104F1080001F0B4FF054603E094
:1010800002E001E0012500BF00BF55B9D64820307D
:10109000006820F00300A16C0843D34920310860A8
:1010A00000E0A8464FF48003D4E900101940002066
:1010B0005940404001437DD1CC48006840F48070E5
:1010C000CA490860FFF7DCFB064606E0FFF7D8FBDD
:1010D000801B642801D9032505E0C448006800F49A
:1010E00080700028F2D000BF85BBBF484430006844
:1010F00000F44070B4F8B01001F44071884213D08D
:10110000B9484430006820F44077B748443000685C
:1011100040F48030B449443108600846006820F447
:101120008030086008460760D4F8B000B0F5807FD2
:1011300015D1FFF7A5FB064609E0FFF7A1FB801BD1
:1011400041F28831884202D9032507E038E0A648F9
:1011500044300068C0F340000028EED000BF55BB0B
:1011600000BFB4F8B00000F44070B0F5407F0ED17D
:101170009D481C38006820F47C519D4AD4F8B0008A
:10118000104041EA101098491C39086007E0964861
:101190001C38006820F47C5093491C390860924840
:1011A00044300068B4F8B010C1F30B0108438E4915
:1011B000443101E005E001E0086002E0A84600E0FB
:1011C000A8460122D4E900011040002113465840EE
:1011D0004940084330D1A06F18281AD005DC48B127
:1011E000082808D0102817D10CE0202812D0282871
:1011F00012D110E012E0012104F1080001F0F2FE2A
:1012000005460BE0012104F1280001F09DFF054691
:1012100004E003E002E001E0012500BF00BF55B992
:1012200071482830006820F03800A16F08436E49EB
:101230002831086000E0A8460223D4E900101940D4
:10124000002059404040014329D1606F062816D242
:10125000DFE800F003040B12131412E0012104F183
:10126000080001F0BFFE05460BE0012104F1280053
:1012700001F06AFF054604E003E002E001E0012519
:1012800000BF00BF55B958482830006820F007005B
:10129000616F084354492831086000E0A8460422E1
:1012A000D4E900101140002013465940404001434A
:1012B0002BD1D4F89000062816D2DFE800F0030402
:1012C0000B12131412E0012104F1080001F08AFE50
:1012D00005460BE0012104F1280001F035FF054629
:1012E00004E003E002E001E0012500BF00BF5DB9BA
:1012F0003D482C30006820F00700D4F890100843D7
:1013000039492C31086000E0A8462023D4E90001C7
:101310001840002158404940084337D1D4F88C0088
:10132000B0F1405F1ED007DC68B1B0F1805F0BD038
:10133000B0F1005F19D10EE0B0F1804F13D0B0F1E1
:10134000A04F12D110E012E0002104F1080001F0DA
:1013500049FE05460BE0022104F1280001F0F4FEED
:10136000054604E003E002E001E0012500BF00BF04
:101370005DB91D482830006820F0E040D4F88C109A
:10138000084319492831086000E0A8464023D4E901
:101390000010194000205940404001433CD1D4F88E
:1013A0009800B0F5406F25D007DC68B1B0F5806FCC
:1013B0000BD0B0F5006F20D10EE0B0F5805F1AD0F1
:1013C000B0F5A05F19D117E019E0002104F1080081
:1013D00001F008FE054612E0022104F1280001F0A8
:1013E000B3FE05460BE000002C44025800480258AA
:1013F000FFFCFF0F03E002E001E0012500BF00BF9A
:101400004DB9FE48006820F4E050D4F89810084325
:10141000FA49086000E0A8468023D4E9001019408A
:10142000002059404040014335D1D4F89C00B0F52C
:10143000C04F1ED007DC68B1B0F5005F0BD0B0F52F
:10144000804F19D10EE0B0F5004F13D0B0F5204F0A
:1014500012D110E012E0002104F1080001F0C2FDF9
:1014600005460BE0022104F1280001F06DFE05465F
:1014700004E003E002E001E0012500BF00BF4DB938
:10148000DE48006820F46040D4F89C100843DB4933
:10149000086000E0A8460823D4E9000118400021B4
:1014A00058404940084317D1D4F88000B0F5805F18
:1014B00007D1022104F1280001F046FE08B14FF0E7
:1014C0000108CE48001F006820F44050D4F8801076
:1014D0000843CA49091F08601023D4E900011840D5
:1014E000002158404940084315D1D4F89400B0F584
:1014F000807F07D1022104F1280001F025FE08B108
:101500004FF00108BD48006820F44070D4F89410F2
:101510000843BA4908604FF40023D4E90001184099
:10152000002158404940084327D1D4F8A00030B1E9
:10153000B0F5803F0AD0B0F5003F0FD10DE000219B
:1015400004F1080001F04EFD054609E0022104F116
:10155000280001F0F9FD054602E001E0012500BF89
:1015600000BF4DB9A548006820F44030D4F8A01061
:101570000843A249086000E0A8464FF48023D4E95C
:101580000001184000215840494008432DD1D4F8AB
:101590008400B0F5801F06D0B0F5001F0CD0B0F568
:1015A000401F11D10FE095482C38006840F40030FE
:1015B00092492C39086009E0012104F1280001F06A
:1015C000C3FD054602E001E0012500BF00BF5DB993
:1015D0008A48001F006820F44010D4F884100843A3
:1015E0008649091F086000E0A8464FF48032D4E91C
:1015F000000110400021134658404940084325D1BE
:10160000206D18B1B0F5803F10D108E07B482C3830
:10161000006840F4003079492C39086008E0022164
:1016200004F1080001F0DEFC054601E0012500BFE1
:1016300000BF55B971480C38006820F48030216D26
:1016400008436E490C39086000E0A8464FF000538B
:10165000D4E900101940002059404040014307D10F
:10166000022104F1280001F06FFD08B14FF00108DC
:101670004FF40032D4E900011040002113465840D5
:101680004940084327D1E06FA0B1B0F5807F06D074
:10169000B0F5007F0CD0B0F5407F0CD109E0574881
:1016A0002C38006840F4003054492C39086004E0BC
:1016B00003E002E001E0012500BF00BF55B94F483B
:1016C000001F006820F44070E16F08434B49091F78
:1016D000086000E0A8464FF48012D4E900101140E1
:1016E0000020134659404040014309D1434808387F
:1016F000006820F00040216F084340490839086025
:101700004FF40013D4E9000118400021584049402B
:10171000084309D139480838006820F08070A16E6C
:1017200008433649083908604FF08043D4E9001077
:101730001940002059404040014311D100BF2F48BB
:101740004838006820F400402C49483908600846B1
:101750000068D4F8B410084328494839086000BF2D
:101760004FF00042D4E900011040002113465840D8
:101770004940084309D121480C38006820F0405006
:10178000616D08431D490C3908604FF40002D4E92B
:1017900000101140002013465940404001430AD137
:1017A0001648001F006820F44000D4F88810084351
:1017B0001249091F08600122002160681040494059
:1017C0005040014306D104F1080001F00BFC05462E
:1017D00005B1A846022200216068104049405040EF
:1017E000014307D1012104F1080001F0FBFB05468C
:1017F00005B1A84604230020616801E0584402585E
:101800001940042240405140084307D1022104F10D
:10181000080001F0E7FB054605B1A84608230020B3
:1018200061681940082240405140084307D1002117
:1018300004F1280001F088FC054605B1A8461023F4
:10184000002061681940102240405140084307D1F0
:10185000012104F1280001F077FC054605B1A846F6
:10186000202200216068104049405040014307D1C8
:10187000022104F1280001F067FC054605B1A846E5
:10188000B8F1000F02D10020BDE8F0810120FBE794
:101890002DE9F04104460D4614B90120BDE8F08160
:1018A000BD48006800F00F00A8420ED2BA48006898
:1018B00020F00F002843B84908600846006800F08F
:1018C0000F00A84201D00120E8E7207800F00400D2
:1018D00004280ED1B1492069096801F070018842DD
:1018E00007D9AE48006820F0700021690843AB4971
:1018F0000860207800F00800082811D1A749091DC8
:101900006069096801F07001884209D9A348001D87
:10191000006820F0700061690843A049091D086053
:10192000207800F01000102811D19C49091DA069F1
:10193000096801F4E061884209D99848001D0068EF
:1019400020F4E060A16908439449091D08602078EB
:1019500000F02000202811D190490831E069096881
:1019600001F07001884209D98C480830006820F0E5
:101970007000E1690843894908310860207800F067
:10198000020002280ED18549E068096801F00F01C4
:10199000884207D98148006820F00F00E1680843B9
:1019A0007E490860207800F00100002850D07B4874
:1019B000006820F47060A168084378490860606896
:1019C000022807D1754818380068C0F34040F8B9BC
:1019D000012063E76068032807D170481838006861
:1019E000C0F34060A0B9012058E76068012807D122
:1019F0006A4818380068C0F3002048B901204DE754
:101A0000664818380068C0F3800008B9012045E72F
:101A100062480838006820F00700616808435F49A1
:101A200008390860FEF72CFF064608E0FEF728FF9D
:101A3000801B41F28831884201D903202EE75748A4
:101A40000838006800F038006168B0EBC10FEDD1D4
:101A5000207800F0020002280ED15049E0680968A1
:101A600001F00F01884207D24C48006820F00F00B7
:101A7000E1680843494908604748006800F00F00E2
:101A8000A8420ED94448006820F00F00284342497C
:101A900008600846006800F00F00A84201D001204D
:101AA000FCE6207800F0040004280ED13B492069B0
:101AB000096801F07001884207D23848006820F0B8
:101AC00070002169084335490860207800F008005B
:101AD000082811D13149091D6069096801F07001B8
:101AE000884209D22D48001D006820F0700061690D
:101AF00008432A49091D0860207800F010001028CA
:101B000011D12649091DA069096801F4E0618842E4
:101B100009D22248001D006820F4E060A169084352
:101B20001E49091D0860207800F02000202811D1EE
:101B30001A490831E069096801F07001884209D248
:101B400016480830006820F07000E1690843134926
:101B50000831086000F09AF810490968C1F30321C0
:101B60000F4A515C01F01F0120FA01F70B48006891
:101B700000F00F001146085C00F01F0027FA00F08B
:101B8000084908600848076008480068FEF7BAFE80
:101B90008046404682E60000002000521844025869
:101BA0000458000818000024140000240C0000242D
:101BB0003F220260174A126802F007024260154A8B
:101BC0000832126802F470628260124A08321268A7
:101BD00002F00F02C2600F4A0832126802F070026F
:101BE00002610C4A0C32126802F070024261094A2A
:101BF0000C32126802F4E0628261064A1032126806
:101C000002F07002C261044A126802F00F020A6018
:101C100070470000104402580020005210B500F038
:101C200035F80D490968C1F303210C4A515C01F0F4
:101C30001F0120FA01F40848006800F00F00114667
:101C4000085C00F01F0024FA00F005490860054810
:101C500004600846006810BD184402580458000883
:101C6000180000241400002400B5FFF7D7FF054931
:101C70000968C1F30211044A515C01F01F01C84018
:101C800000BD00001C44025804580008F0B5824E04
:101C9000366806F0380636B1082E15D0102E15D04D
:101CA000182E7DD114E07C4E103E3668C6F34016E7
:101CB00046B1794E103E3668C6F3C107774E26FA14
:101CC00007F000E07548E5E07548E3E07548E1E0BD
:101CD000714E1836366806F003046F4E18363668B3
:101CE000C6F305116C4E1C36366806F001056A4EC7
:101CF00024363668C6F3CC0616FB05F601EE106AEC
:101D0000B8EE410A002971D024B1012C50D0022C28
:101D10006DD16DE0604E103E3668C6F340163EB39E
:101D20005D4E103E3668C6F3C1075C4E26FA07F3D7
:101D300001EE103AF8EE411A01EE101AB8EE411A0F
:101D400081EE812A9FED581AC0EE011A524E2036BC
:101D50003668C6F3080601EE106AB8EE411A31EE95
:101D6000811AF7EE001A31EE211A62EE010A1EE026
:101D700001EE101AB8EE411ADFED4C1A81EE812AFD
:101D80009FED491AC0EE011A434E20363668C6F35D
:101D9000080601EE106AB8EE411A31EE811A00E031
:101DA00076E0F7EE001A31EE211A62EE010A5BE0EE
:101DB00001EE101AB8EE411A9FED3D2AC2EE011A4B
:101DC0009FED391A80EE012A334E20363668C6F36D
:101DD000080601EE106AB8EE411A32EE011AB7EEAB
:101DE000002A31EE021A61EE810A3DE04EE01DE06C
:101DF00001EE101AB8EE411ADFED2E1A81EE812A9B
:101E00009FED291AC0EE011A234E20363668C6F31C
:101E1000080601EE106AB8EE411A31EE811AF7EEAB
:101E2000001A31EE211A62EE010A1DE001EE101ACD
:101E3000B8EE411A9FED1E2AC2EE011A9FED1A1A42
:101E400080EE012A144E20363668C6F3080601EEED
:101E5000106AB8EE411A32EE011AB7EE002A31EEDE
:101E6000021A61EE810A00BF00BF0B4E20363668B1
:101E7000C6F34626721C01EE102AB8EE411AC0EED7
:101E8000811ABCEEE11A11EE100A00E0002001E018
:101E9000034800BF00BFF0BD104402580090D003BB
:101EA00000093D0000366E01000000460024744C1D
:101EB0000024744A001BB74B2DE9F047044614B9BF
:101EC0000120BDE8F087207800F00100002870D0E4
:101ED000F948006800F03808F7481830D0F800904A
:101EE000B8F1100F06D0B8F1180F0FD109F00300A8
:101EF00002280BD1F04810380068C0F34040002899
:101F00006AD06068002867D10120DAE700BF606806
:101F1000B0F5803F08D1E8481038006840F48030C0
:101F2000E549103908602EE0606868B9E248103869
:101F3000006820F48030E0491039086008460068E5
:101F400020F4802008601EE06068B0F5A02F0DD15D
:101F5000D9481038006840F48020D749103908600B
:101F60000846006840F4803008600CE0D248103821
:101F7000006820F48030D0491039086008460068B5
:101F800020F48020086000BF606898B1FEF778FCFC
:101F9000054606E0FEF774FC401B642801D90320C7
:101FA0008FE7C54810380068C0F340400028F1D0E2
:101FB00012E012E0FEF764FC054606E0FEF760FC66
:101FC000401B642801D903207BE7BB481038006818
:101FD000C0F340400028F1D100BF207800F002009B
:101FE000022879D1B448006800F03808B2481830A7
:101FF000D0F80090B8F1000F05D0B8F1180F35D126
:1020000009F0030088BBAC4810380068C0F38000BA
:1020100018B1E06808B9012053E7A74810380068F4
:1020200020F01900E1680843A34910390860FEF761
:1020300027FC054606E0FEF723FC401B022801D9D9
:1020400003203EE79C4810380068C0F38000002859
:10205000F1D099480C38006820F0FE40217C40EA1D
:10206000016095490C39086045E0FFE7E06838B346
:1020700091481038006820F01900E16808438E4943
:1020800010390860FEF7FCFB054606E0FEF7F8FB9A
:10209000401B022801D9032013E787481038006845
:1020A000C0F380000028F1D083480C38006820F08D
:1020B000FE40217C40EA01607F490C3908601AE04B
:1020C0007D481038006820F001007B491039086015
:1020D000FEF7D6FB054607E00EE0FEF7D1FB401BFE
:1020E000022801D90320ECE6734810380068C0F3D9
:1020F00080000028F1D100BF207800F010001028E7
:102100006FD16D48006800F038086B481830D0F87F
:102110000090B8F1080F06D0B8F1180F1CD109F0E3
:102120000300012818D1644810380068C0F300206B
:1021300020B1E069802801D00120C2E600BF5E48DE
:10214000001F006820F07C5094F8201040EA0160E5
:102150005949091F086043E0E06938B35648103810
:10216000006840F08000544910390860FEF788FB91
:10217000054606E0FEF784FB401B022801D9032038
:102180009FE64D4810380068C0F300200028F1D0C9
:1021900000BF4948001F006820F07C5094F82010D0
:1021A00040EA01604449091F086019E042481038BC
:1021B000006820F08000404910390860FEF760FB9D
:1021C000054606E0FEF75CFB401B022801D9032010
:1021D00077E6394810380068C0F300200028F1D1B4
:1021E00000BF207800F00800082836D16069D0B11F
:1021F00031486430006840F001002F4964310860C4
:10220000FEF73EFB054606E0FEF73AFB401B0228C0
:1022100001D9032055E6284864300068C0F3400027
:102220000028F1D019E024486430006820F0010053
:10223000214964310860FEF723FB054606E0FEF7FE
:102240001FFB401B022801D903203AE61A486430DC
:102250000068C0F340000028F1D1207800F0200091
:10226000202838D1A069D0B113481038006840F454
:102270008050114910390860FEF702FB054606E060
:10228000FEF7FEFA401B022801D9032019E60A488E
:1022900010380068C0F340300028F1D01BE0064839
:1022A0001038006820F48050034910390860FEF7A8
:1022B000E7FA054609E0000010440258FEF7E0FA8C
:1022C000401B022801D90320FBE5D0480068C0F379
:1022D00040300028F2D1207800F0040004287DD19D
:1022E000CB48006840F48070C9490860FEF7C8FA1E
:1022F000054606E0FEF7C4FA401B642801D9032016
:10230000DFE5C348006800F480700028F2D000BF09
:10231000A068012808D1BD487030006840F0010075
:10232000BA49703108602DE0A06868B9B7487030CC
:10233000006820F00100B549703108600846006867
:1023400020F0040008601DE0A06805280DD1AF480A
:102350007030006840F00400AC49703108600846F5
:10236000006840F0010008600CE0A8487030006888
:1023700020F00100A549703108600846006820F08F
:102380000400086000BFA068A0B1FEF779FA054616
:1023900008E0FEF775FA401B41F28831884201D906
:1023A00003208EE5994870300068C0F34000002893
:1023B000EFD013E0FEF764FA054608E0FEF760FA96
:1023C000401B41F28831884201D9032079E58F48CA
:1023D00070300068C0F340000028EFD1606A002828
:1023E0007DD08A481030006800F03800182877D077
:1023F000606A022875D18548006820F080708349A2
:102400000860FEF73DFA054606E0FEF739FA401B84
:10241000022801D9032054E57C480068C0F34060DD
:102420000028F2D100BFD4E90A1041EA0010774930
:102430002831096840F2F332914308437349283147
:102440000860208E401EC0F30800616B491E4FF4E7
:102450007E4202EA41210843218F491ED20102EA4D
:10246000014108433C21095D491E120202EA016153
:10247000084366493031086000BF081F006820F03B
:102480000100091F08606148343000684FF6F87198
:102490008843A16C40EAC1005C49343108605B4864
:1024A0002C30006820F00C00216C084357492C3177
:1024B00008600846006820F00200616C0843534938
:1024C0002C3108600846006840F4803008600846F7
:1024D000006840F4003008600846006802E092E0BE
:1024E00038E01FE040F4802008600846006840F0B3
:1024F000010008604548006840F08070434908606A
:10250000FEF7BEF9054606E0FEF7BAF9401B0228C1
:1025100001D90320D5E43D480068C0F3406000289D
:10252000F2D070E03948006820F0807037490860C8
:10253000FEF7A6F9054606E0FEF7A2F9401B0228C1
:1025400001D90320BDE431480068C0F34060002891
:10255000F2D158E02D48283007682C483030066802
:10256000606A012821D007F00301A06A81421CD1D2
:10257000C7F30511E06A884217D1C6F30801206B42
:10258000401E814211D1606B401EC6F34621884235
:102590000BD1A06B401EC6F30641884205D1E06B0B
:1025A000401EC6F30661884201D0012089E4174825
:1025B00034300068C0F3CC07A06CB84223D0134875
:1025C0002C30006820F0010010492C310860FEF723
:1025D00057F9054600BFFEF753F9401BFBD00B48E7
:1025E000343000684FF6F8718843A16C40EAC100AE
:1025F00006493431086005482C30006840F001007D
:1026000002492C31086000205BE4000000440258BD
:102610000048025870B504460CB9012070BD606ACC
:1026200000B900BF0021A1626349206888420CD034
:1026300062492068884208D061492068884204D0F5
:10264000E0680F2801D90120E8E7204600F099FE54
:10265000054659492068884209D05849206888426F
:1026600005D057492068884201D0082D0DD852491D
:102670002068884207D051492068884203D05049D9
:102680002068884203D1102D01D90120C6E794F8B3
:10269000810028B9002084F88000204600F092F8DC
:1026A000022084F881002068006820F00100216881
:1026B00008602068806800F4F816A069B0F1806FA7
:1026C00011D16068B0F5800F01D1A06B28B16068AE
:1026D00048B9A06BB0F1805F05D12068006840F474
:1026E000805021680860606800F48000B0F5800FB9
:1026F0000BD1E068072808D32068006820F48070B8
:10270000216D08432168086005E02068006820F416
:10271000807021680860A16AE06908433043E16B7A
:102720000843E168084321688860616A606B084378
:10273000A16B0843A1690843216908436169084303
:10274000216A084361680843E16C0843A1680843B3
:10275000A16C0843A16D08432168C860606878B91E
:102760002068806820F4C05040F4006021688860D0
:102770002068806820F4C06040F480602168886030
:102780002068006D20F0010021680865606800F491
:102790008000B0F5800F07D12068C06820F00040AD
:1027A000616D08432168C8600020C4F884000120DE
:1027B00084F88100002031E70030014000380040FB
:1027C000003C004010B5B6B00446142130A8FDF717
:1027D0009AFEB82102A8FDF796FE2049206888429B
:1027E00039D14FF480410020CDE902104FF0A040D4
:1027F0002D9002A8FEF7E8F908B1FDF73FFF00BFF2
:102800001748006840F02000154908600846006835
:1028100000F02000019000BF00BF00BF1048143836
:10282000006840F001000E4914390860084600684D
:1028300000F00100019000BF00BFA02030900220F6
:10284000319000203290032033900820349030A93A
:102850000448FDF717FF36B010BD00000014005803
:10286000F4440258000002582DE9F84F0446884607
:1028700017461D46206800F120094FF0000A00BFEE
:1028800094F88000012802D10220BDE8F88F0120D1
:1028900084F8800000BFFDF7F3FF064694F881003E
:1028A000012808D04FF0020A00BF002084F8800001
:1028B00000BF5046E9E7B8F1000F00D047B94FF02C
:1028C000010A00BF002084F8800000BF5046DCE70A
:1028D00003205C3484F825000020A062C4F8008046
:1028E000A780E780A060A081E081A06160615C3C7E
:1028F000A068B0F5C02F06D12068006840F40060E1
:102900002168086007E02068C06820F4C02040F417
:1029100000302168C860206840686FF30F003843BA
:10292000216848602068006840F001002168086064
:102930006068B0F5800F05D12068006840F4007031
:1029400021680860E0680F2833D92DE020684069CD
:1029500000F0020002280CD1E06D006821680862D6
:10296000E06D001DE065B4F86200401EA4F862004E
:102970001AE0FDF785FF801BA84201D3681C00B94F
:1029800095B9204600F092FC00BF002084F880003A
:1029900000BFD4F8840040F48070C4F884000120A3
:1029A00084F88100032070E7B4F862000028CDD1DC
:1029B000A4E0E068072846D940E02068406900F0BC
:1029C000020002281FD1B4F8620001280ED9E06B82
:1029D00060B1E06D006821680862E06D001DE0658F
:1029E000B4F86200801EA4F8620027E0E06D008861
:1029F000A9F80000E06D801CE065B4F86200401E9C
:102A0000A4F862001AE0FDF73BFF801BA84201D347
:102A1000681C00B995B9204600F048FC00BF0020B2
:102A200084F8800000BFD4F8840040F48070C4F8BB
:102A30008400012084F88100032026E7B4F86200B6
:102A40000028BAD15AE055E02068406900F0020041
:102A5000022834D1B4F8620003280FD9E06B402873
:102A60000CD9E06D006821680862E06D001DE0652A
:102A7000B4F86200001FA4F862003BE0B4F8620002
:102A800001280ED9E06B60B1E06D0088A9F8000064
:102A9000E06D801CE065B4F86200801EA4F862005E
:102AA00028E0E06D0078216881F82000E06D401C8E
:102AB000E065B4F86200401EA4F862001AE0FDF779
:102AC000DFFE801BA84201D3681C00B995B92046DF
:102AD00000F0ECFB00BF002084F8800000BFD4F8B9
:102AE000840040F48070C4F88400012084F88100E0
:102AF0000320CAE6B4F862000028A5D12B460022C4
:102B000008212046009600F049FC28B1D4F8840042
:102B100040F02000C4F88400204600F0C7FB00BF4E
:102B2000002084F8800000BF012084F88100D4F8E0
:102B3000840008B10120A8E65046A6E67047704719
:102B4000704710B504460CB9012010BD94F83D0043
:102B500028B9002084F83C00204600F029F8022023
:102B600084F83D00211D206800F01CFD012084F840
:102B7000480000BF84F83E0001213F20015540205D
:102B8000015541200155422001554320015500BF08
:102B900000BF012084F8440045200155462001551E
:102BA0004720015500BF012084F83D000020CCE7FC
:102BB00070470000014691F83D00012801D0012036
:102BC0007047022081F83D000868C06840F00100AD
:102BD0000B68D860204B0868984223D00868B0F191
:102BE000804F1FD01D4B086898421BD01C4B0868B3
:102BF000984217D01B4B0868984213D01A4B0868AC
:102C000098420FD0194B086898420BD0184B0868AF
:102C1000984207D0174B0868984203D0164B0868B3
:102C2000984210D108688068144B00EA0302062A13
:102C30000FD0B2F5803F0CD00868006840F001006A
:102C40000B68186005E00868006840F001000B6838
:102C500018600020B4E700000000014000040040BC
:102C600000080040000C0040000401400018004033
:102C70000040014000E0004000E400400700010087
:102C8000704710B5044620680069C0F34000D8B111
:102C90002068C068C0F34000B0B16FF00200216846
:102CA0000861012020772068806900F0030018B1D6
:102CB0002046FFF7E5FF05E0204600F0BEF820467D
:102CC00000F0BCF80020207720680069C0F3800085
:102CD000D8B12068C068C0F38000B0B16FF00400C4
:102CE00021680861022020772068806900F4407024
:102CF00018B12046FFF7C4FF05E0204600F09DF81C
:102D0000204600F09BF80020207720680069C0F37F
:102D1000C000D8B12068C068C0F3C000B0B16FF087
:102D2000080021680861042020772068C06900F04D
:102D3000030018B12046FFF7A3FF05E0204600F08E
:102D40007CF8204600F07AF800202077206800699F
:102D5000C0F30010D8B12068C068C0F30010B0B153
:102D60006FF0100021680861082020772068C06992
:102D700000F4407018B12046FFF782FF05E02046BE
:102D800000F05BF8204600F059F80020207720681A
:102D9000006900F0010058B12068C06800F001002F
:102DA00030B16FF0010021680861204600F048F85A
:102DB00020680069C0F3C01058B12068C068C0F333
:102DC000C01030B16FF08000216808612046FFF725
:102DD000B6FE20680069C0F3002058B12068C068C2
:102DE000C0F3C01030B16FF48070216808612046D4
:102DF000FFF7A4FE20680069C0F3801058B1206876
:102E0000C068C0F3801030B16FF0400021680861E5
:102E1000204600F021F820680069C0F3401058B146
:102E20002068C068C0F3401030B16FF02000216806
:102E300008612046FFF784FE10BD70477047000010
:102E400010B5044603492068884201D1FDF71EFDF4
:102E500010BD000000100040704700BFFEE71FB526
:102E600000200090019002900390FDF7C9FD012021
:102E70008DF8000000208DF8010001901F208DF8D2
:102E8000080087208DF8090000208DF80A008DF8D1
:102E90000B0001208DF80C008DF80D0000208DF83E
:102EA0000E008DF80F006846FDF77CFD0420FDF74D
:102EB000BDFD1FBD10B5074A0021074800F0CAFC40
:102EC00006490860064A0021064800F0C3FC06498E
:102ED000086010BDBC570008DF3300080000002464
:102EE000E0570008773700080400002400B587B0D9
:102EF000142102A8FDF707FB00BF1D48006840F041
:102F000004001B4908600846006800F004000190B6
:102F100000BF00BF00BF0846006840F080000860A6
:102F20000846006800F08000019000BF00BF00BFAD
:102F30000846006840F0010008600846006800F09C
:102F40000100019000BF00BF01224FF46041094819
:102F5000FDF790FC4FF460400290012003900020A8
:102F60000490059002A90348FDF78CFB07B000BD53
:102F7000E04402580008025810B516481649086087
:102F80004FF4800048604111134881600721C160FF
:102F9000002101614FF080714161890081618900E8
:102FA000C1610021016241628162C1624FF08041D2
:102FB000416300218163C163016441648164C16430
:102FC000016541658165FFF725FB08B1FDF756FBFB
:102FD00010BD000000140058A000002400BFFEE750
:102FE00000BFFEE72DE9F04104460E460027554894
:102FF000006800F00300032802D10120BDE8F08141
:1030000050482838006820F080604E492839086010
:10301000FDF736FC054606E0FDF732FC401B0228B2
:1030200001D90320EAE7474828380068C0F3C060A8
:103030000028F1D100BF4348006820F47C302168AB
:1030400040EA01303F490860A088401EC0F30800F4
:10305000A168491E4FF47E4202EA41210843A1893A
:10306000491ED20102EA01410843217C491E120295
:1030700002EA0161084333491031086000BF31485A
:10308000001D006820F0C000616908432D49091D3A
:1030900008600846006820F02000A169084329491B
:1030A000091D08600846006820F0100008602548E7
:1030B000143000684FF6F8718843E16940EAC100B6
:1030C0002049143108601F48001D006840F01000BE
:1030D0001C49091D08602EB90846006840F400200C
:1030E000086012E0012E08D11648001D006840F467
:1030F00080101449091D086007E01248001D00688F
:1031000040F400100F49091D08600E482838006877
:1031100040F080600B4928390860FDF7B1FB054697
:1031200006E0FDF7ADFB401B022801D9032065E74F
:10313000044828380068C0F3C0600028F1D0384641
:103140005CE70000284402582DE9F04104460E4691
:1031500000275548006800F00300032802D1012031
:10316000BDE8F08150482838006820F080504E4972
:1031700028390860FDF784FB054606E0FDF780FB73
:10318000401B022801D90320EAE747482838006895
:10319000C0F340700028F1D100BF4348006820F020
:1031A0007C70218840EA01503F490860A088401E99
:1031B000C0F30800A168491E4FF47E4202EA412193
:1031C0000843A189491ED20102EA01410843217C3A
:1031D000491E120202EA01610843334918310860AE
:1031E00000BF3148001D006820F440606169084359
:1031F0002D49091D08600846006820F40070A16987
:1032000008432949091D08600846006820F48070B9
:10321000086025481C3000684FF6F8718843E16962
:1032200040EAC10020491C3108601F48001D0068A9
:1032300040F480701C49091D08602EB908460068DA
:1032400040F48000086012E0012E08D11648001DED
:10325000006840F400001449091D086007E01248A6
:10326000001D006840F080700F49091D08600E487D
:103270002838006840F080500B4928390860FDF775
:10328000FFFA054606E0FDF7FBFA401B022801D9CC
:10329000032065E7044828380068C0F34070002820
:1032A000F1D038465CE700002844025802685169B2
:1032B0000268926942F0080203689A6102689269A2
:1032C00042F0100203689A610268126822F001025B
:1032D00003681A600268126940F26F339A43036808
:1032E0001A610268926822F4404203689A6090F87A
:1032F0008120042A0ED001F020025AB1D0F8842097
:1033000042F08002C0F884200268926942F02002F4
:1033100003689A6190F88120032A0ED001F04002E0
:103320005AB1D0F8842042F00402C0F88420026828
:10333000926942F0400203689A6101F400725AB146
:10334000D0F8842042F00102C0F88420026892691B
:1033500042F4007203689A6101F480725AB1D0F8A5
:10336000842042F00802C0F884200268926942F486
:10337000807203689A610022A0F86220A0F86A2097
:10338000704710B501460124C86B04EB5013C868A0
:10339000421CD01DC20802FB03F010BD2DE9F04114
:1033A00006460D4617461C46DDF818800BE0FDF773
:1033B00067FAA0EB0800A04201D3601C00B914B961
:1033C0000320BDE8F081306840692840A84201D15F
:1033D000012000E00020B842E9D00020F1E700BF62
:1033E000012000F0E1F9FBE710B54FF0E0200069A3
:1033F00001F088FF012801D001F0D2FB10BD0000D0
:1034000000B59DB04C210AA8FDF77DF8202102A847
:10341000FDF779F80220FDF7A7FB00BF002001901F
:103420002348006820F440402149086008460068AD
:1034300000F44040019000BF00BF00BF1C4800687E
:1034400000F40050B0F5005FF8D101200A900004AC
:103450000B900220139002211491159128211691AE
:10346000012117910221189119910C211A91002123
:103470001B911C910AA8FEF71FFD08B1FDF7FEF88D
:103480003F20029003200390002004900820059024
:1034900040200690079000010890402009900321E9
:1034A00002A8FEF7F5F908B1FDF7E8F81DB000BD78
:1034B000184802582F48006840F470002D490860F1
:1034C0002D48006800F00F00072806D22A4800683F
:1034D00020F00F00C01D284908602848006840F00F
:1034E0000100264908600020244910310860234863
:1034F000006823490840214908601F48006800F01F
:103500000F00072806D91C48006820F00F00C01DD6
:10351000194908600020194918310860091D086020
:10352000091D086017481549283108601648091D0B
:1035300008601648091D08600020091D086013482E
:10354000091D08600020091D08601048091D086059
:103550000020091D08600948006820F48020074900
:103560000860002005496031086043F2D200084934
:103570000860704788ED00E00020005200440258C7
:103580007FEDF6EA000202020000FF018002010165
:103590000040005210B50248FFF773FB10BD000059
:1035A0002801002410B502682C4B98420ED0B0F1CF
:1035B000804F0BD02A4B984208D02A4B984205D016
:1035C000294B984202D0294B984203D122F0700235
:1035D0004B681A43214B98421DD0B0F1804F1AD04E
:1035E0001F4B984217D01F4B984214D01E4B984245
:1035F00011D01E4B98420ED01D4B98420BD01D4B44
:10360000984208D01C4B984205D01C4B984202D0DF
:103610001B4B984203D122F44072CB681A4322F02C
:1036200080034C6943EA040202608B68C3620B6842
:1036300083620A4B98420BD00C4B984208D00C4B3B
:10364000984205D00B4B984202D00B4B984201D1C7
:103650000B6903630123436110BD000000000140BA
:103660000004004000080040000C0040000401403D
:1036700000400140004401400048014000E000409B
:1036800000E4004000BFFEE7F0B587B004460E46F8
:1036900015460020009000BF27E046FA00F101F037
:1036A000010109B1F02100E0C0214910C0F1070279
:1036B00001AB995444FA00F101F0010109B1F02184
:1036C00000E0C0214910C0F10F0201AB995445FA46
:1036D00000F101F0010109B1F02100E0C021491021
:1036E000C0F1170201AB9954401C0828D5DB4FF6F6
:1036F000FF73002269460F48FFF7B6F800BF0D4878
:1037000090F881000128FAD14FF6FF73182201A921
:103710000848FFF7A9F8002707E04FF6FF730122DA
:1037200069460448FFF7A0F87F1C642FF5DB07B05B
:10373000F0BD0000A000002402480068C0F3022091
:10374000704700000CED00E010B5002804DB0A070C
:10375000130E054A135406E00A07140E034A00F03C
:103760000F031B1FD45410BD00E400E018ED00E06F
:10377000EFF30580704700BF00F096FEC82000F010
:1037800013F8F9E7FFF76BFBFDF78CF8FFF738FE4E
:10379000FFF7ACFBFFF7F0FB00F016F8FFF78AFB32
:1037A00000F028F800BFFEE770B50546FFF7E0FF20
:1037B00010B16FF0050404E0002415B1284601F0B3
:1037C00013F8204670BD000010B5FFF7D1FF10B10F
:1037D0006FF0050409E00648006820B9012004499B
:1037E0000860002401E04FF0FF34204610BD0000C7
:1037F0006C00002470B5FFF7BBFF10B16FF005043B
:103800001FE011480068012819D100BF801F002166
:10381000002804DB0A07130E0C4A135406E00A07BB
:10382000150E0B4A00F00F031B1FD55400BF00BF3D
:1038300002200549086001F053F8002401E04FF030
:10384000FF34204670BD00006C00002400E400E05E
:1038500018ED00E02DE9FF47804689461446002018
:103860000390FFF785FF00284ED1B8F1000F4BD031
:10387000802618258246471E44B3206808B1D4F834
:1038800000A0A06900B1A5692DB1382D03D8207919
:1038900000F0010018B1002004B0BDE8F0876069B5
:1038A00008B160698608A06840B1E0685C2805D36B
:1038B000206918B1606908B1012708E0A06830B933
:1038C000E06820B9206910B9002700E00027012F27
:1038D0000CD12169A0684B463246CDE900510290D7
:1038E0005146404601F0B0FC03900DE067B903A8D3
:1038F000B2B24B465146CDE90050404601F072FC51
:10390000012801D0002003900398C5E72DE9F0417C
:1039100005460E461648076816480068001D00F068
:10392000DBFD681C38B936B112480168091D124820
:1039300000F028FE1AE07C190E4800684460BC4282
:1039400007D20C480168091D0C48006800F000FE11
:103950000CE008480168091D0948006800F0F8FDFE
:1039600008480068844201D206480460BDE8F0813E
:10397000300000241C0000246406002424000024DD
:10398000200000244C00002410B5044600F006FE80
:1039900024480068401C234908602348006840B957
:1039A000214804600846006801280DD100F0FCF9A8
:1039B0000AE01E48006838B91B480068C06AE16A1E
:1039C000884201D81848046019480068401C18490A
:1039D00008600846006860641649E06A0968884221
:1039E00002D91449E06A0860E16A01EB8101124AD8
:1039F00002EB8100211D00F0C5FD00F0F9FD0B4830
:103A0000006868B108480068C06AE16A884207D265
:103A10004FF0805009490860BFF34F8FBFF36F8F9D
:103A200010BD00002C0000241C00002438000024DD
:103A30004800002434000024B401002404ED00E018
:103A400008B500F0ABFD12480068E8B9114800F075
:103A50006FFD114800F06CFD0E48104908600E48DB
:103A60000F49086000200F4B0F4A102100900A20D8
:103A700001F0B0F8064908600846006820B10BA1C3
:103A80000348006800F074FE00F0B2FD08BD0000BD
:103A900060000024780600248C06002458000024CE
:103AA0005C000024A0060024F0060024546D72512E
:103AB0000000000010B516E000F070FD0C48C06872
:103AC000C468201D00F008FD0A480068401E09492E
:103AD000086009480068401E0749086000F088FD3A
:103AE000204600F05FF8044800680028E4D110BDCB
:103AF000500600242C0000242800002470B5044641
:103B00000D46206C70B1216CE0680144E160D4E99D
:103B10000210884201D32168E1602846226CE168E6
:103B2000FCF7A4FC70BD2DE9F04104460F46154694
:103B30004FF00008A66B206C48B9206800282CD1F3
:103B4000A06801F097FC80460020A06025E07DB9C8
:103B50003946226C6068FCF789FC216C6068084477
:103B60006060D4E90101884217D32068606014E0E6
:103B70003946226CE068FCF779FC216CE068411A58
:103B8000E1602168E068884203D2216CA068411A94
:103B9000E160022D01D106B1761E701CA063404683
:103BA000BDE8F08110B5044694F8590030B9206B97
:103BB00000F03CFD204600F039FD1AE094F8590071
:103BC000012803D1204600F031FD12E094F859009D
:103BD000022801D1012000E0002050B900BF502090
:103BE00080F31188BFF34F8FBFF36F8F00BF00BF0B
:103BF000FEE710BD0146084A126812680AB90122A0
:103C000000E000220A600A6822B9034A1268D268FA
:103C1000106800E0002070475800002430B54FF4D1
:103C20007053174800F007042CB1C01D20F00700A6
:103C3000134C041B1B1B0246124C22600024114D26
:103C40006C60D018083820F007000F4C206000246A
:103C50000D4D2D686C600C4D2D682C601146441A7A
:103C60004C60094C24680C60084D4C682C60084D71
:103C70004C682C604FF00044064D2C6030BD0000B5
:103C80000000002070000024780000248000002440
:103C90007C0000248C00002400BFFFF70BFF0648C7
:103CA00000680128F9D94FF0805004490860BFF33B
:103CB0004F8FBFF36F8FF0E7B401002404ED00E0F5
:103CC0002DE9F04106460D4617469846069C0DB96B
:103CD000246000E02760E66325640121204600F0AF
:103CE000E9FF84F84C80BDE8F0812DE9F05F824661
:103CF0000E4690469B460A9F0C9C4FEA8801A522DF
:103D0000206BFCF7F8FBA8F10100216B01EB8009A7
:103D100029F0070909F0070008B9012000E0002098
:103D200050B900BF502080F31188BFF34F8FBFF30D
:103D30006F8F00BF00BFFEE786B1002507E0715D11
:103D400004F134004155705D00B902E06D1C102D86
:103D5000F5D300BF00214320015502E0002084F884
:103D60003400382F00D33727E762E764002020654E
:103D7000201D00F0EAFB04F1180000F0E6FB2461CE
:103D8000C7F13800A06164620020606584F85800C3
:103D90005A465146484600F071FB20600B9808B126
:103DA0000B980460BDE8F09F10B5002407E004EB19
:103DB00084010F4A02EB810000F0BAFB641C382C2E
:103DC000F5D30C4800F0B4FB0B4800F0B1FB0B48F6
:103DD00000F0AEFB0A4800F0ABFB0A4800F0A8FB7D
:103DE00004480949086004480849086010BD0000FB
:103DF000B401002414060024280600243C060024F4
:103E0000500600246406002420000024240000241E
:103E100010B50146164800E0006803688B42FBD3EA
:103E20000246436813448B4204D143684C682344E0
:103E3000436001460A464B6813440468A34211D10B
:103E40000C4C03682468A34208D04B68046864687B
:103E500023444B6003681B680B6005E0054B1B683F
:103E60000B6001E003680B60884200D0016010BD68
:103E700070000024780000242DE9F04104460D462E
:103E800016461F464FF0000865602461B5420CD805
:103E9000F01BA169884202D34FF0010811E0211DF7
:103EA0000948006800F054FB0BE0BE4204D2BD425A
:103EB00002D34FF0010804E0211D0448006800F01F
:103EC00047FB4046BDE8F0815C0000245800002418
:103ED00070B5054600F062FBA86B08B9012400E04C
:103EE000002400F085FB204670BD70B5054600F04B
:103EF00055FBA86BE96B884201D1012400E0002446
:103F000000F076FB204670BDF8B505460F461A480E
:103F10000068C068C468201D00F0DEFA94F828002C
:103F200000F00400E8B1A06941192B463A4620464A
:103F3000FFF7A2FFD8B1002003462A4601460090B1
:103F4000204601F0F3FB064656B900BF502080F32F
:103F50001188BFF34F8FBFF36F8F00BF00BFFEE725
:103F600005E094F8280020F0010084F8280020469D
:103F7000216A8847F8BD000058000024F0B587B0DA
:103F8000A0E00398002811DA04AE56B900BF502013
:103F900080F31188BFF34F8FBFF36F8F00BF00BF57
:103FA000FEE7D6E90020B168904700BF03980028DB
:103FB000E6DB059C606908B9012000E0002010B92B
:103FC000201D00F089FA02A800F0DEF805460398EB
:103FD0000A2875D2DFE800F00905073941630608B1
:103FE0003A4200BF00BF00BF00BF94F8280040F075
:103FF000010084F828000498A269811803462A4623
:104000002046FFF739FFF8B12046216A884794F827
:10401000280000F00400B8B1002000900498A169C5
:10402000421800231946204601F080FB074657B985
:1040300000BF502080F31188BFF34F8FBFF36F8F05
:1040400000BF00BFFEE700BF3BE000BF94F82800C0
:1040500020F0010084F8280033E000BF94F8280025
:1040600040F0010084F828000498A061A06908B11C
:10407000012000E0002050B900BF502080F31188DB
:10408000BFF34F8FBFF36F8F00BF00BFFEE7A06984
:1040900041192B462A462046FFF7EEFE11E094F820
:1040A000280000F0020018B9204600F0BFFA05E031
:1040B00094F8280020F0010084F8280001E0FFE7D0
:1040C00000BF00BF002203A90448006800F090FF71
:1040D00000287FF456AF07B0F0BD00006000002458
:1040E000F8B505460C4600F057FC684600F04CF861
:1040F0000646009820BB44B9B54206D801F058FAEC
:1041000031462846FFF700FF1CE03CB10E4800682E
:10411000006808B9012000E000200446A91B2246DF
:104120000A48006800F03AFB01F042FA50B94FF03B
:10413000805007490860BFF34F8FBFF36F8F01E0D6
:1041400001F036FAF8BD00005C0000246000002495
:1041500004ED00E00A490968096809B9012100E095
:10416000002121B14FF0FF31064A116006E00449F9
:104170000968C968C868034A41681160704700004F
:10418000200000244C00002470B5044601F0CAF859
:10419000054607480068854204D200F00BF801206C
:1041A000206001E00020206001480560284670BDC5
:1041B000680000242DE9F84334E025480068C06811
:1041C000056823480068C068C468201D00F084F9B1
:1041D0002046216A884794F8280000F0040008B3BC
:1041E000A0694619AE4207D966602461211D1848AE
:1041F000006800F0ADF915E0002003462A460146AC
:104200000090204601F092FA074657B900BF5020AF
:1042100080F31188BFF34F8FBFF36F8F00BF00BFD4
:10422000FEE700BF0A480068006808B9012000E006
:1042300000200028C1D00648D0F80080054800685A
:10424000034908600348C0F80080BDE8F883000017
:10425000580000245C0000240E480068401C08B987
:10426000012000E0002050B900BF502080F31188E9
:10427000BFF34F8FBFF36F8F00BF00BFFEE700BFDC
:10428000502080F31188BFF34F8FBFF36F8F00BFB3
:1042900000BFFEE79000002408B500BF6846FFF7A6
:1042A000A9FC044620460099FFF71AFFFFF766FEB7
:1042B000F4E770B5044600F071F994F9455010E048
:1042C000606A08B9012000E0002038B904F1240038
:1042D00001F022F918B100F0C1FA00E003E0681E15
:1042E00045B2002DECDC00BFFF2084F8450000F053
:1042F0007FF900F053F994F9445010E0206908B9AF
:10430000012000E0002048B904F1100001F004F998
:1043100008B100F0A3FA681E45B200E001E0002DEC
:10432000ECDC00BFFF2084F8440000F061F970BDB0
:104330002DE9F04104464FF0000800F02DFB4948FC
:10434000006808B9FFF76AFC474800682040002869
:1043500070D1D4B1083404F00700B0B104F0070004
:10436000C0F10800044404F0070008B9012000E08F
:10437000002050B900BF502080F31188BFF34F8F49
:10438000BFF36F8F00BF00BFFEE7002C52D037484D
:10439000006884424ED8364E3046056801E02E460D
:1043A0002D686868A04202D228680028F7D12D48FD
:1043B000006885423ED0306800F108082868306007
:1043C0006868001B102819D92F1907F0070008B9D1
:1043D000012000E0002050B900BF502080F3118878
:1043E000BFF34F8FBFF36F8F00BF00BFFEE768685A
:1043F000001B78606C603846FFF70AFD1B4968684F
:104400000968081A194908600846006819490968C6
:10441000884203D215480068164908601249686846
:104420000968084368600020286013480068401C41
:104430001149086001F0BCF808F0070008B9012034
:1044400000E0002050B900BF502080F31188BFF376
:104450004F8FBFF36F8F00BF00BFFEE74046BDE840
:10446000F0810000780000248C0000247C000024EF
:10447000700000248000002484000024001F4FF0FE
:1044800080730360001F21F001030360001F054BD0
:10449000036014380260001F6FF0020303602038CD
:1044A000704700005942000810B50A480078401CC7
:1044B0000849087008464078401D487008468078D2
:1044C0000A3088700B469A7859781878FFF7DCF82C
:1044D00010BD00009C00002401460A69D1E90130AA
:1044E0009860D1E9010358605068884201D188681A
:1044F0005060002008611068401E1060106870470E
:10450000034B0360034B0B60802313607047000074
:1045100090070024EC070024034B0360034B0B605F
:104520004FF4807313607047EC090024480A00249C
:1045300000F1080141604FF0FF31816000F1080196
:10454000C160016100210160704700210161704775
:1045500010B502460B685C1C0CB9106907E002F14B
:10456000080000E04068446824689C42FAD9446826
:104570004C604C68A160886041600A611468641CEA
:10458000146010BD42684A6093688B6093685960FC
:104590009160086103685B1C0360704700BF502096
:1045A00080F31188BFF34F8FBFF36F8F00BF0E48AA
:1045B0000068401C0C49086008460068012812D1B8
:1045C0000A480068C0B208B9012000E0002050B9D4
:1045D00000BF502080F31188BFF34F8FBFF36F8F60
:1045E00000BF00BFFEE770479000002404ED00E02C
:1045F0000D48006850B900BF502080F31188BFF308
:104600004F8FBFF36F8F00BF00BFFEE70648006803
:10461000401E054908600846006820B9002080F364
:10462000118800BF00BF70479000002470B5064697
:104630003546002E44D0083D2C4622496068096862
:10464000084008B1012000E0002050B900BF502010
:1046500080F31188BFF34F8FBFF36F8F00BF00BF90
:10466000FEE7206808B9012000E0002050B900BF33
:10467000502080F31188BFF34F8FBFF36F8F00BFBF
:1046800000BFFEE70F49606809680840C0B12068B4
:10469000B0B90C49606809688843606000F07CF933
:1046A0000949606809680844074908602046FFF71F
:1046B000AFFB06480068401C0449086000F078FF22
:1046C00070BD00008C0000247C00002488000024C1
:1046D00000204FF0E02108618861064800684FF42F
:1046E0007A71B0FBF1F0401E4FF0E02148610720E5
:1046F000086170471400002470B5FBF793FE044670
:10470000102C16D304F1E02090F8F05315480078EF
:10471000854201DB012000E0002050B900BF50209D
:1047200080F31188BFF34F8FBFF36F8F00BF00BFBF
:10473000FEE70D48006800F4E0600C490968884213
:1047400001D8012000E0002050B900BF502080F3C4
:104750001188BFF34F8FBFF36F8F00BF00BFFEE71D
:1047600070BD0000940000240CED00E098000024CF
:10477000024600200BE0084B53F8303033B9064BAB
:1047800043F8301003EBC0035A6002E0401C0828D5
:10479000F1D300BF70470000740100242DE9F041FF
:1047A00005460E4617462C46FFF7F8FE94F94400DE
:1047B000401C10B9002084F8440094F94500401CC6
:1047C00010B9002084F84500FFF712FFA06B28B94C
:1047D0003A46314604F1240000F062F82046FFF723
:1047E00068FDBDE8F081000070B504460025D4B135
:1047F0001248006808B9012000E0002050B900BF4D
:10480000502080F31188BFF34F8FBFF36F8F00BF2D
:1048100000BFFEE700F0C0F800212046FFF776F861
:1048200000F0C6FE05463DB94FF0805004490860CF
:10483000BFF34F8FBFF36F8F70BD00005400002493
:1048400004ED00E00349096801600349096841601B
:10485000704700004400002430000024012001497A
:10486000086070474000002470B504460D4654B9F6
:1048700000BF502080F31188BFF34F8FBFF36F8FBD
:1048800000BF00BFFEE70548016818312046FFF76A
:104890005FFE01212846FFF739F870BD1C00002497
:1048A00070B505460E46144655B900BF502080F33A
:1048B0001188BFF34F8FBFF36F8F00BF00BFFEE7BC
:1048C0000648016818312846FFF75CFE0CB14FF02E
:1048D000FF3621463046FFF719F870BD1C00002452
:1048E00010B586B000200590049003AA04A905A87D
:1048F000FFF706FE0022DDE904101346CDE9002192
:1049000002901EA11F48039A00F09EFC1E490860F9
:104910000846006808B1012400E00024012C02D1FF
:1049200000F0C8FE0446012C15D100BF502080F3D2
:104930001188BFF34F8FBFF36F8F00BF4FF0FF3071
:1049400012490860012012490860002011490860DE
:1049500000F072F810E0601C08B1012000E00020B7
:1049600050B900BF502080F31188BFF34F8FBFF3C1
:104970006F8F00BF00BFFEE706B010BD49444C4535
:1049800000000000993C0008500000244C00002466
:10499000380000243000002402480068401C01490F
:1049A00008607047540000241E48006818B10120B8
:1049B0001D49086034E000201B4908601B4801685D
:1049C0000CE051B900BF502080F31188BFF34F8F26
:1049D000BFF36F8F00BF00BFFEE7491E01EB8100F0
:1049E000134A52F8200008B9012000E000200028F6
:1049F000E7D101EB81020E4B03EB82004268526863
:104A0000426000F108024368934202D14268526852
:104A100042604268D268074B1A600448016000BFD8
:104A2000704700005400002440000024340000249B
:104A3000B40100241C0000241CB5524800685249EF
:104A4000884201D0012000E0002050B900BF502072
:104A500080F31188BFF34F8FBFF36F8F00BF00BF8C
:104A6000FEE7484800684849491E884201D00120B5
:104A700000E0002050B900BF502080F31188BFF340
:104A80004F8FBFF36F8F00BF00BFFEE73F4908465F
:104A900000780190FF200A461070084600780090C8
:104AA0009DF8000000F0F0009DF80020904201D138
:104AB000012000E0002050B900BF502080F3118891
:104AC000BFF34F8FBFF36F8F00BF00BFFEE79DF8AE
:104AD000000000F050002E4A107007202D4A106090
:104AE00009E02C480068401E2A4A10609DF800002A
:104AF0004006000E00909DF8000000F08000802825
:104B0000EFD024480068C0F10700042801D101203B
:104B100000E0002050B900BF502080F31188BFF39F
:104B20004F8FBFF36F8F00BF00BFFEE719480068CB
:104B30000002184A10601046008800F4E06010601F
:104B4000124A019810700F482030006840F470003D
:104B50000C49203108600846006840F07040086049
:104B6000FFF7B6FD00200C490860FBF723FC0B485B
:104B7000006840F0404009490860FBF707FC00204E
:104B80001CBD000000ED00E071C20F4100E400E038
:104B900094000024980000249000002434EF00E0EA
:104BA00010B500BF502080F31188BFF34F8FBFF3C3
:104BB0006F8F00BF00F0BCFB18B14FF0805004496C
:104BC000086000BF002080F3118800BF10BD000006
:104BD00004ED00E02DE9F84380460E4617461D46D9
:104BE000DDF82090B8F1000F01D0012000E0002096
:104BF00050B900BF502080F31188BFF34F8FBFF32F
:104C00006F8F00BF00BFFEE70DB1012000E0002064
:104C100050B900BF502080F31188BFF34F8FBFF30E
:104C20006F8F00BF00BFFEE707B10EB1012000E0AB
:104C3000002050B900BF502080F31188BFF34F8F80
:104C4000BFF36F8F00BF00BFFEE707B90EB90120A9
:104C500000E0002050B900BF502080F31188BFF35E
:104C60004F8FBFF36F8F00BF00BFFEE75020009053
:104C70000098502801D1012000E0002050B900BF69
:104C8000502080F31188BFF34F8FBFF36F8F00BFA9
:104C900000BFFEE700BF2C464CB1012084F846005F
:104CA0004B463A46314640460094FFF709F8204605
:104CB000BDE8F88370B505460E462C4654B900BFD2
:104CC000502080F31188BFF34F8FBFF36F8F00BF69
:104CD00000BFFEE7FFF762FCD4E90F12206801FB7A
:104CE0000200A0600020A06320686060E06B401EAE
:104CF000226C216800FB0211E160FF2084F844006F
:104D000084F845009EB9206908B9012000E0002020
:104D1000A8B904F1100000F0FFFB80B14FF0805003
:104D200009490860BFF34F8FBFF36F8F07E004F1AD
:104D30001000FFF7FDFB04F12400FFF7F9FBFFF77C
:104D400057FC012070BD000004ED00E02DE9FF4399
:104D500083B0064688461D464FF00009344654B9D4
:104D600000BF502080F31188BFF34F8FBFF36F8FC8
:104D700000BF00BFFEE7B8F1000F01D1206C08B9F9
:104D8000012000E0002050B900BF502080F31188BE
:104D9000BFF34F8FBFF36F8F00BF00BFFEE7022D41
:104DA00002D1E06B012801D1012000E0002050B9C0
:104DB00000BF502080F31188BFF34F8FBFF36F8F78
:104DC00000BF00BFFEE700F09DFA08B9059808B9DA
:104DD000012000E0002050B900BF502080F311886E
:104DE000BFF34F8FBFF36F8F00BF00BFFEE700BF61
:104DF000FFF7D4FBA06BE16B884201D3022D28D1D1
:104E00002A4641462046FEF78EFE0746606A08B9EC
:104E1000012000E0002068B904F1240000F07CFBD0
:104E200088B14FF0805032490860BFF34F8FBFF315
:104E30006F8F08E03FB14FF080502D490860BFF3FD
:104E40004F8FBFF36F8FFFF7D3FB012007B0BDE893
:104E5000F083059818B9FFF7CBFB0020F6E7B9F10E
:104E6000000F04D101A8FFF7EDFC4FF00109FFF797
:104E7000BFFBFFF791FDFFF791FB94F94400401C45
:104E800010B9002084F8440094F94500401C10B982
:104E9000002084F84500FFF7ABFB05A901A800F04E
:104EA0005BF9F0B92046FFF720F8A0B104F110003B
:104EB0000599FFF7D9FC2046FFF7FBF900F078FBD6
:104EC000002895D14FF0805009490860BFF34F8FFB
:104ED000BFF36F8F8CE72046FFF7EBF900F068FB1C
:104EE00086E72046FFF7E5F900F062FB0020ADE71A
:104EF00004ED00E02DE9F84F07468A4690461E462D
:104F00003C4654B900BF502080F31188BFF34F8F47
:104F1000BFF36F8F00BF00BFFEE7BAF1000F01D1F2
:104F2000206C08B9012000E0002050B900BF5020DB
:104F300080F31188BFF34F8FBFF36F8F00BF00BFA7
:104F4000FEE7022E02D1E06B012801D1012000E032
:104F5000002050B900BF502080F31188BFF34F8F5D
:104F6000BFF36F8F00BF00BFFEE7FFF7C5FB00BFB9
:104F70005021EFF3118081F31188BFF34F8FBFF3FE
:104F80006F8F00BF0546A06BE16B884201D3022EF4
:104F900025D194F945B0A06B009032465146204689
:104FA000FEF7C1FD0BF1010088B9606A08B9012064
:104FB00000E0002050B904F1240000F0ADFA28B15F
:104FC000B8F1000F02D00120C8F8000004E00BF196
:104FD000010040B284F845004FF0010901E04FF0B4
:104FE000000900BF85F3118800BF4846BDE8F88F6F
:104FF0002DE9F74183B005460E464FF000082C46D8
:1050000054B900BF502080F31188BFF34F8FBFF316
:105010006F8F00BF00BFFEE70EB9206C08B90120FA
:1050200000E0002050B900BF502080F31188BFF38A
:105030004F8FBFF36F8F00BF00BFFEE700F062F934
:1050400008B9059808B9012000E0002050B900BF58
:10505000502080F31188BFF34F8FBFF36F8F00BFD5
:1050600000BFFEE700BFFFF799FAA76BF7B1314623
:105070002046FEF743FD781EA063206908B9012091
:1050800000E0002060B904F1100000F045FA38B1EA
:105090004FF080502F490860BFF34F8FBFF36F8FE1
:1050A000FFF7A6FA012006B0BDE8F081059818B90F
:1050B000FFF79EFA0020F6E7B8F1000F04D101A82F
:1050C000FFF7C0FB4FF00108FFF792FAFFF764FC0F
:1050D000FFF764FA94F94400401C10B9002084F8EA
:1050E000440094F94500401C10B9002084F84500A4
:1050F000FFF77EFA05A901A800F02EF8F0B92046C6
:10510000FEF7E6FEA0B104F124000599FFF7ACFB21
:105110002046FFF7CEF800F04BFA0028A3D14FF05D
:1051200080500C490860BFF34F8FBFF36F8F9AE731
:105130002046FFF7BEF800F03BFA94E72046FFF761
:10514000B8F800F035FA2046FEF7C2FE00288AD0F3
:105150000020A8E704ED00E070B505460C4655B9FF
:1051600000BF502080F31188BFF34F8FBFF36F8FC4
:1051700000BF00BFFEE754B900BF502080F3118884
:10518000BFF34F8FBFF36F8F00BF00BFFEE7FFF786
:1051900005FA124802686868131A2068401C08B9AA
:1051A000002617E00E4928680968884204D068681C
:1051B000904201D801260DE02068984207D9206866
:1051C000C01A20602846FFF73DFB002602E00020C1
:1051D00020600126FFF70CFA304670BD3000002435
:1051E000440000242DE9FF4F85B0804689461746CC
:1051F000DDE912ABB800FFF79BF8064656B15C201C
:10520000FFF796F804460CB1266304E03046FFF73A
:105210000DFA00E000248CB1002084F85900CDE99B
:1052200000ABCDE902403A4649464046089BFEF7AE
:105230005CFD2046FEF7A8FB012501E04FF0FF359D
:10524000284609B0BDE8F08F2DE9F04F85B007463C
:10525000884691469A46DDE90EB6109C0EB10120B3
:1052600000E0002050B900BF502080F31188BFF348
:105270004F8FBFF36F8F00BF00BFFEE70CB101205F
:1052800000E0002050B900BF502080F31188BFF328
:105290004F8FBFF36F8F00BF00BFFEE75C2003900E
:1052A00003985C2801D1012000E0002050B900BF24
:1052B000502080F31188BFF34F8FBFF36F8F00BF73
:1052C00000BFFEE700BFB4B1AEB125462C462E6349
:1052D000022085F85900002004A953464A46CDE92A
:1052E00000B1CDE9025041463846FEF7FEFC2846A3
:1052F000FEF74AFB01E000200490049805B0BDE8E9
:10530000F08F00000549096809B9012005E004494A
:10531000096809B9022000E0002070473800002425
:105320005400002401490868704700003000002440
:105330002DE9F0414FF000084348006800287BD178
:1053400042480068451C4148056015BB404800685C
:10535000006808B9012000E0002050B900BF5020CB
:1053600080F31188BFF34F8FBFF36F8F00BF00BF73
:10537000FEE7374807683748006835490860354810
:10538000076035480068401C33490860FEF7E2FEBC
:1053900000BF3248006885423BD300BF2C480068FC
:1053A000006808B9012000E0002020B14FF0FF3074
:1053B0002A4908602CE026480068C068C46866680E
:1053C000B54202D22548066022E0201DFFF784F88E
:1053D000A06A18B104F11800FFF77EF82049E06ACE
:1053E0000968884202D91E49E06A0860E16A01EB57
:1053F00081011C4A02EB8100211DFFF7C3F81A4905
:10540000E06A0968C96A8842C8D34FF00108C5E755
:1054100000BF15480068C06A00EB8000114951F8D0
:105420002000012801D94FF001081048006808B198
:105430004FF0010805E0FFE70D480068401C0C49EB
:1054400008604046BDE8F08154000024300000248C
:105450002000002424000024440000244C000024E8
:1054600034000024B40100241C0000244000002467
:105470003C00002470B505462C460026002D43D084
:1054800022480068844201D1012000E0002050B988
:1054900000BF502080F31188BFF34F8FBFF36F8F91
:1054A00000BF00BFFEE7206D50B900BF502080F361
:1054B0001188BFF34F8FBFF36F8F00BF00BFFEE7B0
:1054C000206D401E2065E16CE06A88421CD0206D92
:1054D000D0B9201DFFF700F8E06CE062E06AC0F18F
:1054E0003800A0610A49E06A0968884202D908497F
:1054F000E06A0860E16A01EB8101064A02EB810083
:10550000211DFFF73FF80126304670BD1C00002426
:1055100034000024B401002470B50646F068C46865
:1055200054B900BF502080F31188BFF34F8FBFF3F1
:105530006F8F00BF00BFFEE704F11800FEF7CCFF3D
:1055400015480068A0B9201DFEF7C6FF1349E06AA0
:105550000968884202D91149E06A0860E16A01EBF2
:1055600081010F4A02EB8100211DFFF70BF804E0D7
:1055700004F118010B48FFF705F80B49E06A0968C8
:10558000C96A884204D9012501200849086000E061
:105590000025284670BD000054000024340000247B
:1055A000B40100243C0600241C0000244000002418
:1055B00070B5002400263648006850B900BF50205E
:1055C00080F31188BFF34F8FBFF36F8F00BF00BF11
:1055D000FEE7FEF7E3FF2E480068401E2C490860F6
:1055E0000846006800284ED12A48006800284AD0A2
:1055F00023E02948C068C46804F11800FEF76CFF76
:10560000201DFEF769FF2549E06A0968884202D932
:105610002249E06A0860E16A01EB8101204A02EB5D
:105620008100211DFEF7AEFF1E49E06A0968C96AC4
:10563000884202D301201C4908601748006808B955
:10564000012000E000200028D3D00CB1FEF782FD3D
:105650001648056865B100BFFFF76AFE10B101206A
:10566000114908606D1E002DF6D100200F49086019
:105670000D48006838B1012630070D490860BFF3B6
:105680004F8FBFF36F8FFEF7B3FF304670BD000042
:10569000540000242C0000243C0600243400002484
:1056A000B40100241C000024400000243C0000241D
:1056B00004ED00E010B586B00024FEF7C1F91648ED
:1056C0000068D0B100200590049003AA04A905A8A1
:1056D000FEF722FF0222DDE904100023CDE90021BC
:1056E00002900EA10F48039AFFF7AEFD0E49086025
:1056F0000846006800B1012400BF54B900BF502023
:1057000080F31188BFF34F8FBFF36F8F00BF00BFCF
:10571000FEE7204606B010BD60000024546D7220E4
:105720005376630099420008640000242DE9FF4786
:1057300004460D4616461F46DDF830804FF000093E
:1057400054B900BF502080F31188BFF34F8FBFF3CF
:105750006F8F00BF00BFFEE71448006810B30095CC
:1057600001960294062D15DAFFF7CCFD022808D128
:105770000023424669460D480068FFF7E7FA814674
:1057800010E000231A46694608480068FFF7DEFA71
:10579000814607E000233A46694604480068FFF75F
:1057A000A9FB8146484604B0BDE8F08760000024AC
:1057B0004FF04070E1EE100A7047000024580008D6
:1057C00000000000000000000000000000000000D9
:1057D00000020000180000000000000000000000AF
:1057E0001458000800000000000000000000000045
:1057F00000000000D00700002800000000000000AA
:105800000000000000000000010203040102030484
:10581000060708095375706572766973696F6E546F
:1058200061736B0064656661756C745461736B00C1
:105830006058000800000024A000000008030008D1
:105840006058000800000020003C0000240300080D
:1058500000590008A00000240818000024030008D4
:105860000000000000000000000000001000000028
:10587000010000000090D0030090D0030000000061
:105880000000000000000000000000000000000018
:105890000000000000000000000000000000000008
:1058A00000000000000000000000000000000000F8
:1058B00000000000000000000000000000000000E8
:1058C00000000000000000000000000000000000D8
:1058D00000000000000000000000000000000000C8
:1058E00000000000000000000000000000000000B8
:1058F000AAAAAAAA00000000000000000000000000
:04000005080002CD20
:00000001FF
