:020000040800F2
:10000000481B00242D040008994E0008CD4A000822
:10001000954E000863070008D16200080000000048
:100020000000000000000000000000006D03000858
:100030006707000800000000C9030008BD5200085F
:100040004704000847040008470400084704000864
:100050004704000847040008470400084704000854
:100060004704000847040008470400084704000844
:100070004704000847040008470400084704000834
:100080004704000847040008470400084704000824
:100090004704000847040008470400084704000814
:1000A0004704000847040008470400084704000804
:1000B00047040008470400084704000847040008F4
:1000C00047040008470400084704000847040008E4
:1000D00047040008A1620008B1620008C16200087C
:1000E0004704000847040008000000004704000817
:1000F00047040008470400084704000847040008B4
:1001000047040008470400084704000847040008A3
:100110004704000847040008695400084704000821
:100120004704000847040008470400084704000883
:100130004704000847040008470400084704000873
:1001400000000000000000000000000000000000AF
:100150004704000847040008470400084704000853
:100160004704000847040008470400084704000843
:100170004704000847040008470400080000000086
:100180004704000847040008470400084704000823
:100190004704000847040008470400084704000813
:1001A0004704000847040008470400080000000056
:1001B00047040008470400084704000847040008F3
:1001C0004704000847040008000000000000000089
:1001D00000000000000000004704000800000000CC
:1001E000000000000000000000000000000000000F
:1001F0000000000000000000470400084704000859
:1002000047040008470400080000000047040008F5
:100210004704000847040008470400084704000892
:100220004704000800000000470400080000000028
:1002300047040008470400080000000047040008C5
:100240004704000847040008470400084704000862
:100250004704000847040008470400084704000852
:100260004704000847040008470400084704000842
:100270004704000847040008470400080000000085
:100280004704000847040008470400084704000822
:1002900000000000470400084704000800000000B8
:1002A0000000000047040008470400084704000855
:1002B00047040008470400084704000847040008F2
:1002C00047040008470400084704000800F002F84B
:1002D00000F03CF80AA090E8000C82448344AAF1A4
:1002E0000107DA4501D100F031F8AFF2090EBAE8A2
:1002F0000F0013F0010F18BFFB1A43F0010318475A
:10030000048B0000348B0000103A24BF78C878C1F9
:10031000FAD8520724BF30C830C144BF04680C600B
:10032000704700000023002400250026103A28BF53
:1003300078C1FBD8520728BF30C148BF0B60704757
:100340001FB508F0E1FA1FBD10B510BD00F0D0F9DF
:100350001146FFF7F5FF06F023F900F0EEF903B4BC
:10036000FFF7F2FF03BC00F0F5F900002C4B196811
:100370000868B0E8F04F80F30988BFF36F8F4FF043
:10038000000080F3118870470000000008480068F2
:10039000006880F308884FF0000080F3148862B68C
:1003A00061B6BFF34F8FBFF36F8F00DF00BF00BF99
:1003B00008ED00E0DFF80C00016841F47001016015
:1003C000704700BF88ED00E0EFF30980BFF36F8F47
:1003D000134B1A681EF0100F08BF20ED108A20E999
:1003E000F04F106009B44FF0500080F31188BFF354
:1003F0004F8FBFF36F8F07F0EDFA4FF0000080F3DF
:10040000118809BC19680868B0E8F04F1EF0100F99
:1004100008BFB0EC108A80F30988BFF36F8F704774
:1004200020000024EFF30580704700000948804752
:1004300009480047FEE7FEE7FEE7FEE7FEE7FEE7C6
:10044000FEE7FEE7FEE7FEE704480549054A064BDE
:100450007047000089530008CD02000848110024AD
:10046000481B0024481300244813002453EA020CBC
:1004700000F069802DE9F04B4FF00006002B1FBF04
:10048000B3FA83F503FA05F424FA05F65E4012BFC9
:100490001643B2FA82F502FA05F4C5F120051EBF33
:1004A00022FA05FC44EA0C04203556EA044C4FEAD3
:1004B000144418BF641C4FF000084FF0000990422C
:1004C00071EB030C39D3002919BFB1FA81F701FA96
:1004D00007F6B0FA80F700FA07F6C7F120071EBF4B
:1004E00020FA07FC46EA0C062037B6FBF4FCA7EB23
:1004F0000507103F07F01F0BCBF120060CFA0BFB92
:100500002CFA06F644BFB3460026202FA4BF5E4651
:100510004FF0000B5BEA060C08BF4FF0010B19EB24
:100520000B09ABFB027C48EB0608C01B06FB02CCA8
:100530000BFB03CC71EB0C01C1E70B4602464146B5
:100540004846BDE8F08B13B54FF000004FF00001B6
:10055000AFF30080BDE81C407047032A40F23080B2
:1005600010F0030C00F0158011F8013BBCF1020FF4
:10057000624498BF11F801CB00F8013B38BF11F875
:10058000013BA2F1040298BF00F801CB38BF00F88C
:10059000013B11F0030300F05780083AC0F00880D7
:1005A00051F8043B083A51F804CBA0E80810F5E7ED
:1005B000121D5CBF51F8043B40F8043BAFF30080D0
:1005C000D20724BF11F8013B11F801CB48BF11F845
:1005D000012B24BF00F8013B00F801CB48BF00F815
:1005E000012B704702F0FF0343EA032242EA024272
:1005F00000F05EB84FF0000200B5134694469646F0
:10060000203922BFA0E80C50A0E80C50B1F1200125
:10061000BFF4F7AF090728BFA0E80C5048BF0CC0D3
:100620005DF804EB890028BF40F8042B08BF704731
:1006300048BF20F8022B11F0804F18BF00F8012BA3
:10064000704770477047704710B5203AC0F00B8074
:10065000B1E81850203AA0E81850B1E81850A0E8C6
:100660001850BFF4F5AF5FEA027C24BFB1E8185020
:10067000A0E8185044BF18C918C0BDE810405FEA90
:10068000827C24BF51F8043B40F8043B08BF70470C
:10069000D20728BF31F8023B48BF11F8012B28BF11
:1006A00020F8023B48BF00F8012B70474FF00002D2
:1006B0000429C0F0128010F0030C3FF49DAFCCF180
:1006C000040CBCF1020F18BF00F8012BA8BF20F8E2
:1006D000022BA1EB0C01FFF78FBF5FEAC17C24BFA7
:1006E00000F8012B00F8012B48BF00F8012B7047E0
:1006F000754600F02BF8AE4605006946534620F0DB
:100700000700854618B020B5FFF79EFEBDE82040E3
:100710004FF000064FF000074FF000084FF0000BBD
:1007200021F00701AC46ACE8C009ACE8C009ACE870
:10073000C009ACE8C0098D46704710B50446AFF358
:1007400000802046BDE81040FFF709BE0048704712
:10075000E810002401491820ABBEFEE72600020085
:10076000704700BFFEE7704772B600BFFEE70000AB
:100770002DE9F041044600F03BFD804614B901200C
:10078000BDE8F08194F83500022808D0802060652B
:1007900000BF002084F8340000BF0120F0E7FE49CC
:1007A0002068884249D0FC4918312068884244D0EA
:1007B000F9493031206888423FD0F74948312068F4
:1007C00088423AD0F44960312068884235D0F249F5
:1007D00078312068884230D0EF49903120688842D3
:1007E0002BD0ED49A8312068884226D0EB492068FB
:1007F000884222D0E9491831206888421DD0E74953
:1008000030312068884218D0E44948312068884255
:1008100013D0E2496031206888420ED0DF49783138
:100820002068884209D0DD4990312068884204D090
:10083000DA49A8312068884201D1012000E0002077
:1008400068B12068006820F01E00216808602068F8
:10085000406920F0800021684861256806E0206832
:10086000006820F00E00216808602568CA492068E9
:10087000884270D0C8491831206888426BD0C64978
:1008800030312068884266D0C349483120688842A8
:1008900061D0C1496031206888425CD0BE4978315E
:1008A0002068884257D0BC4990312068884252D095
:1008B000B949A831206888424DD0B849206888429B
:1008C00049D0B64918312068884244D0B349303104
:1008D000206888423FD0B1494831206888423AD0E8
:1008E000AE4960312068884235D0AC497831206803
:1008F000884230D0A9499031206888422BD0A7493E
:10090000A8312068884226D0A5492068884222D094
:10091000A3491431206888421DD0A149283120689C
:10092000884218D09E493C312068884213D09C49A7
:100930005031206888420ED099496431206888423D
:1009400009D0974978312068884204D094498C3185
:100950002068884201D1012000E0002028B1206EEB
:10096000006820F48070216E08608B4920688842FE
:1009700049D0894918312068884244D086493031AD
:10098000206888423FD084494831206888423AD064
:10099000814960312068884235D07F4978312068AC
:1009A000884230D07C499031206888422BD07A49E7
:1009B000A8312068884226D078492068884222D011
:1009C00076491831206888421DD07449303120683A
:1009D000884218D0714948312068884213D06F4945
:1009E0006031206888420ED06C4978312068884296
:1009F00009D06A4990312068884204D06749A831FB
:100A00002068884206D12068006820F00100216833
:100A1000086005E02068006820F001002168086097
:100A200011E000F0E5FBA0EB080005280BD9202021
:100A30006065032084F8350000BF002084F834008E
:100A400000BF01209CE6286800F001000028E8D1E2
:100A500051492068884249D04F491831206888425E
:100A600044D04D493031206888423FD04A4948310E
:100A7000206888423AD0484960312068884235D0A1
:100A8000454978312068884230D043499031206808
:100A900088422BD04049A8312068884226D03F495F
:100AA0002068884222D03D491831206888421DD0F4
:100AB0003A4930312068884218D038494831206896
:100AC000884213D035496031206888420ED03349BE
:100AD00078312068884209D03049903120688842B6
:100AE00004D02E49A8312068884201D1012000E0BD
:100AF000002040B1A66D94F85C0000F01F013F207B
:100B00008840B06007E0A76D94F85C0000F01F011A
:100B100001208840786020492068884276D01E49AC
:100B200018312068884271D01B49303120688842D2
:100B30006CD0194948312068884267D01649603125
:100B40002068884262D014497831206888425DD09C
:100B5000114990312068884258D00F49A831206847
:100B6000884253D00D49206888424FD00B49183134
:100B7000206888424AD0094930312068884245D0EF
:100B8000064948312068884240D0044960312068D5
:100B900088423BD0014905E01000024010040240A9
:100BA000085402587831206888422FD0254920689F
:100BB00088422BD0234918312068884226D0224908
:100BC0002068884222D020491431206888421DD0F4
:100BD0001D4928312068884218D01B493C312068C3
:100BE000884213D018495031206888420ED01649E7
:100BF00064312068884209D01349783120688842DE
:100C000004D011498C312068884201D1012000E0D4
:100C1000002068B1D4E919104860E06E40B1E06E80
:100C2000006820F48070E16E0860D4E91C10486010
:100C3000012084F8350000BF002084F8340000BF94
:100C400000BF9DE5A00402400854025870B5044658
:100C50000CB9012070BD94F83500022803D0802023
:100C600060650120F6E7DC492068884249D0DA490E
:100C700018312068884244D0D749303120688842F2
:100C80003FD0D5494831206888423AD0D2496031B6
:100C90002068884235D0D04978312068884230D0E9
:100CA000CD499031206888422BD0CB49A8312068AB
:100CB000884226D0C9492068884222D0C7491831C5
:100CC000206888421DD0C54930312068884218D03C
:100CD000C24948312068884213D0C0496031206839
:100CE00088420ED0BD4978312068884209D0BB497E
:100CF00090312068884204D0B849A83120688842E1
:100D000001D1012000E00020F0B3042084F8350078
:100D1000B149206888424BD0AF49183120688842D9
:100D200046D0AD4930312068884241D0AA49483187
:100D3000206888423CD0A84960312068884237D07A
:100D4000A54978312068884232D0A3499031206883
:100D500088422DD0A049A8312068884228D09F49D8
:100D60002068884224D09D491831206888421FD0CD
:100D70009A493031206888421AD098494831206811
:100D8000884215D0954900E020E060312068884213
:100D90000ED0924978312068884209D08F4990312D
:100DA0002068884204D08D49A8312068884206D145
:100DB0002068006820F001002168086009E12068CF
:100DC000006820F001002168086002E120680068E6
:100DD00020F00E00216808607F492068884249D0D1
:100DE0007D4918312068884244D07B4930312068E1
:100DF00088423FD078494831206888423AD07649C5
:100E000060312068884235D0734978312068884243
:100E100030D071499031206888422BD06E49A8317A
:100E20002068884226D06D492068884222D06B49CC
:100E30001831206888421DD06849303120688842C6
:100E400018D0664948312068884213D06349603120
:100E5000206888420ED0614978312068884209D0E4
:100E60005E4990312068884204D05C49A8312068EE
:100E7000884206D12068006820F0010021680860DF
:100E800005E02068006820F00100216808605249F0
:100E90002068884270D050491831206888426BD051
:100EA0004D4930312068884266D04B49483120682E
:100EB000884261D048496031206888425CD0464908
:100EC00078312068884257D0434990312068884261
:100ED00052D04149A831206888424DD03F4920680E
:100EE000884249D03D4918312068884244D03B4966
:100EF0003031206888423FD03849483120688842E4
:100F00003AD0364960312068884235D0334978314B
:100F10002068884230D031499031206888422BD0F7
:100F20002E49A8312068884226D02D492068884261
:100F300022D02B491431206888421DD028492831FD
:100F40002068884218D026493C312068884213D056
:100F500023495031206888420ED0214964312068ED
:100F6000884209D01E4978312068884204D01C4943
:100F70008C312068884201D1012000E00020D8B1E6
:100F8000206E006820F48070216E0860A56D94F8D2
:100F90005C0000F01F01012088406860D4E919104E
:100FA0004860E06E40B1E06E006820F48070E16E51
:100FB0000860D4E91C104860012084F8350000BFA7
:100FC000002084F8340000BF206D10B12046216D50
:100FD000884700203EE60000100002401004024056
:100FE00008540258F8B502460B4600216D4DD2E078
:100FF00001278F401E6806EA0704002C72D01E7974
:1010000006F00306012E04D01E7906F00306022E18
:1010100013D190684F000326BE40B0434F00DE68F6
:10102000BE4030439060506801268E40B0431E7928
:10103000C6F300168E40304350601E7906F003065A
:10104000032E09D0D0684F000326BE40B0434F00A6
:101050009E68BE403043D0601E7906F00306022E23
:1010600013D1CF0802F1200656F827004E07F70EDD
:101070000F26BE40B0434F07FF0E1E69BE403043EF
:10108000CF0802F1200646F8270010684F0003261B
:10109000BE40B0431E7906F003064F00BE40304309
:1010A00010605E6806F44036002E73D000BF3E4EDE
:1010B000366846F002063C4F3E603E46366806F013
:1010C0000206009600BF00BF384E8F0856F8270072
:1010D0008E07370F0F26BE40B043354EB24202D1C5
:1010E000002629E056E0334EB24201D1012623E02A
:1010F000314EB24201D102261EE0304EB24201D141
:10110000032619E02E4EB24201D1042614E02D4EE2
:10111000B24201D105260FE02B4EB24201D1062684
:101120000AE02A4EB24201D1072605E0284EB2421B
:1011300001D1092600E00A268F073F0FBE40304349
:101140001A4E8F0846F827004FF0B0463068A0438B
:101150005E6806F4801606B120434FF0B04630605A
:101160007068A0435E6806F4001606B120434FF095
:10117000B04670606868A0435E6806F4003606B149
:10118000204368602868A0435E6806F4803606B194
:1011900020432860491C1E68CE40002E7FF428AFF3
:1011A000F8BD000080000058F444025808040058BC
:1011B000000002580004025800080258000C0258AF
:1011C000001002580014025800180258001C02585F
:1011D00000240258024613690B400BB1012000E0C5
:1011E000002070470AB1816101E00B048361704700
:1011F00001480068704700000C00002403480068A4
:101200000349097808440149086070470C0000242C
:101210001400002410B5032000F04AF901F042FC4C
:1012200010490968C1F303210F4A515C01F01F0105
:1012300020FA01F40B48006800F00F001146085C2A
:1012400000F01F0024FA00F0084908600848046014
:101250000F2000F00FF808B1012010BD00F0BEF81B
:101260000020FAE718440258A88900081C0000244E
:1012700018000024F0B58BB00446102C0AD20022CE
:101280002146362000F0D6F8362000F0BFF81C4882
:10129000046002E001200BB0F0BD00BF19480068F7
:1012A00040F01000174908600846006800F0100080
:1012B000019000BF00BF02A903A801F073FB089EC4
:1012C0001EB901F0CBFB054602E001F0C7FB45006B
:1012D0000D48B5FBF0F0471E0C480D49086040F280
:1012E000E7310B48C160476000210161816002F075
:1012F000F3FB18B9064802F027FCCCE70120CAE747
:1013000010000024E844025840420F000010004042
:10131000480300244178154A11600178F9B1121D83
:1013200041681160017B0907C27A41EA0261827A51
:1013300041EAC241427B41EA8241827B41EA424129
:10134000C27B41EA0241427A41EA0221027A41EA41
:10135000420102781143054A0832116005E000217C
:10136000024A121D1160121D1160704798ED00E0D5
:1013700000BF00BF00BFBFF35F8F00BF00BF00BF53
:101380000548006820F480300349086000200249C5
:10139000703108607047000024ED00E040F001016A
:1013A0000D4A11600C497039096841F480310A4ACC
:1013B000703A116000BF00BF00BFBFF34F8F00BF86
:1013C00000BF00BF00BF00BF00BFBFF36F8F00BFF3
:1013D00000BF00BF7047000094ED00E008B500BFFB
:1013E0000948006840F002000749086008460068A4
:1013F00000F00200009000BF00BF00220F21901EED
:1014000000F018F808BD0000F444025801460846F0
:1014100000280DDB00BF00BF00F01F0301229A402F
:1014200043099B0003F1E023C3F8002100BF00BF84
:1014300000BF70472DE9F05F80460D46164604F068
:1014400049FF074639462A46334601F00700C0F1F6
:10145000070ABAF1040F02D94FF0040A01E0C0F103
:10146000070AD14600F1040ABAF1070F02D24FF081
:10147000000A01E0A0F1030AD4464FF0010A0AFA7B
:1014800009FAAAF1010A0AEA020A0AFA0CFA4FF06A
:10149000010B0BFA0CFBABF1010B0BEA030B4AEA55
:1014A0000B042146404604F01DFFBDE8F09F0000FC
:1014B00000BF00F00702064B19684FF6FF03194002
:1014C000044B0B4343EA0221014B196000BF7047F4
:1014D0000CED00E00000FA0570B504461548006800
:1014E000C0F3800048B91348006800F00700A0422C
:1014F00001D0012070BD0020FCE70E48006820F0FC
:10150000070020430B490860FFF772FE054607E01D
:10151000FFF76EFE401BB0F57A7F01D90120E9E7A5
:10152000044808380068C0F340300028F0D000209C
:10153000E0E700000C48025810B501F069FA0549CF
:101540000968C1F30211044A515C01F01F01C8404F
:1015500010BD000020440258A889000870B501465B
:10156000844D2D6805F00303824D2D68C5F30530C9
:10157000804D2D1D2D68C5F300147E4D14352D684A
:10158000C5F3CC0515FB04F501EE105AB8EE411A6F
:10159000F0EE410A00286FD023B1012B4ED0022B70
:1015A0006BD16BE0734D283D2D68C5F340153DB3FD
:1015B000704D283D2D68C5F3C1066F4D25FA06F222
:1015C00001EE102AF8EE411A01EE100AB8EE411AA7
:1015D00081EE812A9FED691AC0EE811A654D1035A2
:1015E0002D68C5F3080501EE105AB8EE411A31EE28
:1015F000811AF7EE001A31EE211A22EE010A1CE0E0
:1016000001EE100AB8EE411ADFED5D1A81EE812A73
:101610009FED5A1AC0EE811A564D10352D68C5F34C
:10162000080501EE105AB8EE411A31EE811AF7EEB4
:10163000001A31EE211A22EE010A5BE001EE100AD7
:10164000B8EE411ADFED4F1A81EE812A9FED4B1A59
:10165000C0EE811A474D10352D68C5F3080501EE1F
:10166000105AB8EE411A31EE811AF7EE001A31EE37
:10167000211A22EE010A3DE077E01DE001EE100A9A
:10168000B8EE411A9FED402AC2EE011A9FED3B1AB7
:1016900080EE812A374D10352D68C5F3080501EE1F
:1016A000105AB8EE411A32EE011AB7EE002A31EEA6
:1016B000021A21EE810A1DE001EE100AB8EE411A6D
:1016C000DFED301A81EE812A9FED2C1AC0EE811ACF
:1016D000284D10352D68C5F3080501EE105AB8EEF7
:1016E000411A31EE811AF7EE001A31EE211A22EE7C
:1016F000010A00BF00BF1F4D10352D68C5F34625F8
:1017000001EE105AB8EE411AF7EE001A31EE211A26
:10171000C0EE011ABCEEE11A81ED001A154D10352C
:101720002D68C5F3064501EE105AB8EE411AF7EEE2
:10173000001A31EE211AC0EE011ABCEEE11A81ED59
:10174000011A0C4D10352D68C5F3066501EE105ACF
:10175000B8EE411AF7EE001A31EE211AC0EE011A66
:10176000BCEEE11A81ED021A03E000250D604D6028
:101770008D6070BD284402580090D00300000046E0
:101780000024744C0024744A001BB74B70B501460A
:10179000844D2D6805F00303824D2D68C5F3055077
:1017A000804D2D1D2D68C5F300247E4D1C352D6800
:1017B000C5F3CC0515FB04F501EE105AB8EE411A3D
:1017C000F0EE410A00286FD023B1012B4ED0022B3E
:1017D0006BD16BE0734D283D2D68C5F340153DB3CB
:1017E000704D283D2D68C5F3C1066F4D25FA06F2F0
:1017F00001EE102AF8EE411A01EE100AB8EE411A75
:1018000081EE812A9FED691AC0EE811A654D183567
:101810002D68C5F3080501EE105AB8EE411A31EEF5
:10182000811AF7EE001A31EE211A22EE010A1CE0AD
:1018300001EE100AB8EE411ADFED5D1A81EE812A41
:101840009FED5A1AC0EE811A564D18352D68C5F312
:10185000080501EE105AB8EE411A31EE811AF7EE82
:10186000001A31EE211A22EE010A5BE001EE100AA5
:10187000B8EE411ADFED4F1A81EE812A9FED4B1A27
:10188000C0EE811A474D18352D68C5F3080501EEE5
:10189000105AB8EE411A31EE811AF7EE001A31EE05
:1018A000211A22EE010A3DE077E01DE001EE100A68
:1018B000B8EE411A9FED402AC2EE011A9FED3B1A85
:1018C00080EE812A374D18352D68C5F3080501EEE5
:1018D000105AB8EE411A32EE011AB7EE002A31EE74
:1018E000021A21EE810A1DE001EE100AB8EE411A3B
:1018F000DFED301A81EE812A9FED2C1AC0EE811A9D
:10190000284D18352D68C5F3080501EE105AB8EEBC
:10191000411A31EE811AF7EE001A31EE211A22EE49
:10192000010A00BF00BF1F4D18352D68C5F34625BD
:1019300001EE105AB8EE411AF7EE001A31EE211AF4
:10194000C0EE011ABCEEE11A81ED001A154D1835F2
:101950002D68C5F3064501EE105AB8EE411AF7EEB0
:10196000001A31EE211AC0EE011ABCEEE11A81ED27
:10197000011A0C4D18352D68C5F3066501EE105A95
:10198000B8EE411AF7EE001A31EE211AC0EE011A34
:10199000BCEEE11A81ED021A03E000250D604D60F6
:1019A0008D6070BD284402580090D00300000046AE
:1019B0000024744C0024744A001BB74B2DE9F041FD
:1019C00004460025A8464FF00062D4E900101140FB
:1019D0000020134659404040014331D1606E48B168
:1019E000B0F5801F0DD0B0F5001F11D0B0F5401F2D
:1019F00016D114E0FE48006840F40030FC4908604D
:101A000010E0022104F1080003F048FA054609E05D
:101A1000022104F1280003F0F3FA054602E001E098
:101A2000012500BF00BF55B9F1482430006820F4FB
:101A30004010616E0843EE492431086000E0A8467A
:101A40004FF48072D4E90010114000201346594031
:101A5000404001432ED1A06D05281BD2DFE800F0E5
:101A6000030A11181900E248006840F40030E04908
:101A7000086011E0002104F1080003F00FFA0546A8
:101A80000AE0002104F1280003F0BAFA054603E059
:101A900002E001E0012500BF00BF55B9D448243061
:101AA000006820F00700A16D0843D1492431086087
:101AB00000E0A8464FF48062D4E9001011400020F5
:101AC00013465940404001433DD1D4F8A400B0F53D
:101AD000C00F24D007DC68B1B0F5001F11D0B0F5FD
:101AE000800F1FD114E0B0F5000F19D0B0F5200F12
:101AF00018D116E0BE48006840F40030BC490860C8
:101B000012E0002104F1080003F0C8F905460BE0DB
:101B1000002104F1280003F073FA054604E003E015
:101B200002E001E0012500BF00BF5DB9B0482C30E4
:101B3000006820F46000D4F8A4100843AC492C31AC
:101B4000086000E0A8464FF40062D4E900011040AC
:101B5000002113465840494008433DD1D4F8A8001D
:101B6000B0F1407F24D007DC68B1B0F1807F11D0A4
:101B7000B0F1007F1FD114E0B0F1806F19D0B0F147
:101B8000A06F18D116E09A48006840F400309849D8
:101B9000086012E0002104F1080003F07FF9054617
:101BA0000BE0002104F1280003F02AFA054604E0C6
:101BB00003E002E001E0012500BF00BF5DB98C48F1
:101BC0002C30006820F0E060D4F8A8100843884961
:101BD0002C31086000E0A8464FF00073D4E90010F3
:101BE0001940002059404040014328D1E06CA8B181
:101BF000102804D0202809D0302810D10DE07C48CE
:101C0000006840F400307A4908600AE0022104F1DB
:101C1000080003F043F9054603E002E001E0012576
:101C200000BF00BF55B972482030006820F0300076
:101C3000E16C08436E492031086000E0A8464FF48B
:101C40008053D4E90010194000205940404001431E
:101C500037D1E06DB0F5005F1AD004DC50B1B0F5BB
:101C6000805F1ED10DE0B0F5405F18D0B0F5804F19
:101C700017D115E05E48006840F400305C49086008
:101C800011E0002104F1080003F008F905460AE01C
:101C9000002104F1280003F0B3F9054603E002E057
:101CA00001E0012500BF00BF55B95148243000684C
:101CB00020F4E040E16D08434D492431086000E024
:101CC000A8464FF40053D4E90010194000205940B1
:101CD0004040014335D1206EB0F5403F1ED007DCB7
:101CE00068B1B0F5803F0BD0B0F5003F19D10EE0E0
:101CF000B0F5802F13D0B0F5A02F12D110E012E074
:101D0000012104F1080003F0C9F805460BE00121A8
:101D100004F1280003F074F9054604E003E002E052
:101D200001E0012500BF00BF55B9314824300068EB
:101D300020F4E020216E08432D492431086000E0A2
:101D4000A8464FF48042D4E9000110400021134618
:101D500058404940084337D1D4F8AC00B0F1405F57
:101D60001ED007DC68B1B0F1805F0BD0B0F1005F2E
:101D700019D10EE0B0F1804F13D0B0F1A04F12D1C5
:101D800010E012E0012104F1080003F087F8054695
:101D90000BE0012104F1280003F032F9054604E0CC
:101DA00003E002E001E0012500BF00BF5DB910487B
:101DB0002C30006820F0E040D4F8AC1008430C4907
:101DC0002C31086000E0A8464FF40043D4E900013C
:101DD000184000215840494008432AD1E06EB8B16C
:101DE000B0F1805F06D0B0F1005F12D109E00000D1
:101DF0002C440258F948006840F40030F749086064
:101E000009E0012104F1080003F048F8054602E06A
:101E100001E0012500BF00BF55B9F048243000683B
:101E200020F04050E16E0843EC492431086000E0A6
:101E3000A8464FF08073D4E90010194000205940A3
:101E40004040014328D1A06CA8B1012804D0022849
:101E500009D0032810D10DE0E048006840F40030BC
:101E6000DE4908600AE0022104F1080003F016F8D8
:101E7000054603E002E001E0012500BF00BF55B9BF
:101E8000D6482030006820F00300A16C0843D349F5
:101E90002031086000E0A8464FF48003D4E9001028
:101EA000194000205940404001437DD1CC48006892
:101EB00040F48070CA490860FFF79AF9064606E0C8
:101EC000FFF796F9801B642801D9032505E0C44873
:101ED000006800F480700028F2D000BF85BBBF48C6
:101EE0004430006800F44070B4F8B01001F4407160
:101EF000884213D0B9484430006820F44077B7488E
:101F00004430006840F48030B449443108600846E9
:101F1000006820F48030086008460760D4F8B000FC
:101F2000B0F5807F15D1FFF763F9064609E0FFF7AA
:101F30005FF9801B41F28831884202D9032507E00E
:101F400038E0A64844300068C0F340000028EED0D6
:101F500000BF55BB00BFB4F8B00000F44070B0F54E
:101F6000407F0ED19D481C38006820F47C519D4A6A
:101F7000D4F8B000104041EA101098491C390860AC
:101F800007E096481C38006820F47C5093491C39BF
:101F90000860924844300068B4F8B010C1F30B01F7
:101FA00008438E49443101E005E001E0086002E0A9
:101FB000A84600E0A8460122D4E900011040002113
:101FC000134658404940084330D1A06F18281AD012
:101FD00005DC48B1082808D0102817D10CE02028CB
:101FE00012D0282812D110E012E0012104F10800DB
:101FF00002F054FF05460BE0012104F1280002F035
:10200000FFFF054604E003E002E001E0012500BF18
:1020100000BF55B971482830006820F03800A16F22
:1020200008436E492831086000E0A8460223D4E93D
:1020300000101940002059404040014329D1606FF1
:10204000062816D2DFE800F003040B12131412E086
:10205000012104F1080002F021FF05460BE00121F7
:1020600004F1280002F0CCFF054604E003E002E0A2
:1020700001E0012500BF00BF55B95848283000686D
:1020800020F00700616F084354492831086000E0E0
:10209000A8460422D4E900101140002013465940FC
:1020A000404001432BD1D4F89000062816D2DFE837
:1020B00000F003040B12131412E0012104F10800D4
:1020C00002F0ECFE05460BE0012104F1280002F0CD
:1020D00097FF054604E003E002E001E0012500BFB0
:1020E00000BF5DB93D482C30006820F00700D4F8EF
:1020F0009010084339492C31086000E0A84620239D
:10210000D4E900011840002158404940084337D124
:10211000D4F88C00B0F1405F1ED007DC68B1B0F19C
:10212000805F0BD0B0F1005F19D10EE0B0F1804FAD
:1021300013D0B0F1A04F12D110E012E0002104F151
:10214000080002F0ABFE05460BE0022104F1280076
:1021500002F056FF054604E003E002E001E001253D
:1021600000BF00BF5DB91D482830006820F0E04086
:10217000D4F88C10084319492831086000E0A846BB
:102180004023D4E900101940002059404040014349
:102190003CD1D4F89800B0F5406F25D007DC68B189
:1021A000B0F5806F0BD0B0F5006F20D10EE0B0F528
:1021B000805F1AD0B0F5A05F19D117E019E00021B7
:1021C00004F1080002F06AFE054612E0022104F163
:1021D000280002F015FF05460BE000002C440258D1
:1021E00000480258FFFCFF0F03E002E001E0012578
:1021F00000BF00BF4DB9FE48006820F4E050D4F89D
:1022000098100843FA49086000E0A8468023D4E902
:1022100000101940002059404040014335D1D4F806
:102220009C00B0F5C04F1ED007DC68B1B0F5005F70
:102230000BD0B0F5804F19D10EE0B0F5004F13D0A0
:10224000B0F5204F12D110E012E0002104F1080097
:1022500002F024FE05460BE0022104F1280002F002
:10226000CFFE054604E003E002E001E0012500BFE7
:1022700000BF4DB9DE48006820F46040D4F89C10DF
:102280000843DB49086000E0A8460823D4E90001C0
:102290001840002158404940084317D1D4F8800025
:1022A000B0F5805F07D1022104F1280002F0A8FEFA
:1022B00008B14FF00108CE48001F006820F44050DC
:1022C000D4F880100843CA49091F08601023D4E9D4
:1022D00000011840002158404940084315D1D4F866
:1022E0009400B0F5807F07D1022104F1280002F0AC
:1022F00087FE08B14FF00108BD48006820F4407027
:10230000D4F894100843BA4908604FF40023D4E984
:1023100000011840002158404940084327D1D4F813
:10232000A00030B1B0F5803F0AD0B0F5003F0FD12A
:102330000DE0002104F1080002F0B0FD054609E0BF
:10234000022104F1280002F05BFE054602E001E0F4
:10235000012500BF00BF4DB9A548006820F44030FA
:10236000D4F8A0100843A249086000E0A8464FF442
:102370008023D4E900011840002158404940084317
:102380002DD1D4F88400B0F5801F06D0B0F5001F21
:102390000CD0B0F5401F11D10FE095482C380068E3
:1023A00040F4003092492C39086009E0012104F121
:1023B000280002F025FE054602E001E0012500BFED
:1023C00000BF5DB98A48001F006820F44010D4F8AF
:1023D000841008438649091F086000E0A8464FF4AE
:1023E0008032D4E900011040002113465840494092
:1023F000084325D1206D18B1B0F5803F10D108E019
:102400007B482C38006840F4003079492C3908604A
:1024100008E0022104F1080002F040FD054601E059
:10242000012500BF00BF55B971480C38006820F481
:102430008030216D08436E490C39086000E0A846E1
:102440004FF00053D4E9001019400020594040409B
:10245000014307D1022104F1280002F0D1FD08B1A7
:102460004FF001084FF40032D4E900011040002180
:10247000134658404940084327D1E06FA0B1B0F55A
:10248000807F06D0B0F5007F0CD0B0F5407F0CD136
:1024900009E057482C38006840F4003054492C3982
:1024A000086004E003E002E001E0012500BF00BF96
:1024B00055B94F48001F006820F44070E16F084391
:1024C0004B49091F086000E0A8464FF48012D4E988
:1024D000001011400020134659404040014309D1EB
:1024E00043480838006820F00040216F0843404905
:1024F000083908604FF40013D4E9000118400021A6
:1025000058404940084309D139480838006820F04C
:102510008070A16E08433649083908604FF0804347
:10252000D4E900101940002059404040014311D126
:1025300000BF2F484838006820F400402C49483933
:10254000086008460068D4F8B410084328494839A0
:10255000086000BF4FF00042D4E9000110400021A4
:10256000134658404940084309D121480C380068B7
:1025700020F04050616D08431D490C3908604FF44C
:102580000002D4E900101140002013465940404099
:1025900001430AD11648001F006820F44000D4F817
:1025A000881008431249091F086001220021606851
:1025B000104049405040014306D104F1080002F0A8
:1025C0006DFC054605B1A846022200216068104056
:1025D00049405040014307D1012104F1080002F0B5
:1025E0005DFC054605B1A84604230020616801E0B2
:1025F000584402581940042240405140084307D132
:10260000022104F1080002F049FC054605B1A84684
:1026100008230020616819400822404051400843C7
:1026200007D1002104F1280002F0EAFC054605B1BB
:10263000A8461023002061681940102240405140F4
:10264000084307D1012104F1280002F0D9FC054616
:1026500005B1A84620220021606810404940504042
:10266000014307D1022104F1280002F0C9FC05460C
:1026700005B1A846B8F1000F02D10020BDE8F081F5
:102680000120FBE72DE9F04104460D4614B9012075
:10269000BDE8F081BD48006800F00F00A8420ED2EE
:1026A000BA48006820F00F002843B849086008467F
:1026B000006800F00F00A84201D00120E8E7207870
:1026C00000F0040004280ED1B1492069096801F026
:1026D0007001884207D9AE48006820F07000216977
:1026E0000843AB490860207800F00800082811D1A1
:1026F000A749091D6069096801F07001884209D97C
:10270000A348001D006820F0700061690843A049DB
:10271000091D0860207800F01000102811D19C4994
:10272000091DA069096801F4E061884209D9984847
:10273000001D006820F4E060A16908439449091D68
:102740000860207800F02000202811D1904908313D
:10275000E069096801F07001884209D98C480830A5
:10276000006820F07000E169084389490831086079
:10277000207800F0020002280ED18549E06809683F
:1027800001F00F01884207D98148006820F00F004E
:10279000E16808437E490860207800F001000028C5
:1027A00050D07B48006820F47060A16808437849E5
:1027B00008606068022807D1754818380068C0F3BF
:1027C0004040F8B9012063E76068032807D17048EA
:1027D00018380068C0F34060A0B9012058E760686D
:1027E000012807D16A4818380068C0F3002048B9AA
:1027F00001204DE7664818380068C0F3800008B92A
:10280000012045E762480838006820F00700616849
:1028100008435F4908390860FEF7EAFC064608E00D
:10282000FEF7E6FC801B41F28831884201D9032083
:102830002EE757480838006800F038006168B0EBB0
:10284000C10FEDD1207800F0020002280ED15049CE
:10285000E068096801F00F01884207D24C4800681F
:1028600020F00F00E16808434949086047480068C4
:1028700000F00F00A8420ED94448006820F00F0075
:102880002843424908600846006800F00F00A8424B
:1028900001D00120FCE6207800F0040004280ED1CD
:1028A0003B492069096801F07001884207D2384825
:1028B000006820F0700021690843354908602078DD
:1028C00000F00800082811D13149091D6069096824
:1028D00001F07001884209D22D48001D006820F0E7
:1028E0007000616908432A49091D0860207800F0DA
:1028F0001000102811D12649091DA069096801F4AA
:10290000E061884209D22248001D006820F4E0609E
:10291000A16908431E49091D0860207800F02000C5
:10292000202811D11A490831E069096801F07001C5
:10293000884209D216480830006820F07000E1692A
:10294000084313490831086000F0ACF810490968E1
:10295000C1F303210F4A515C01F01F0120FA01F776
:102960000B48006800F00F001146085C00F01F00E3
:1029700027FA00F00849086008480760084800681E
:10298000FEF778FC8046404682E6000000200052B8
:1029900018440258A88900081C00002418000024CC
:1029A000100000243F220260174A126802F007025A
:1029B0004260154A0832126802F470628260124A5C
:1029C0000832126802F00F02C2600F4A0832126821
:1029D00002F0700202610C4A0C32126802F07002BE
:1029E0004261094A0C32126802F4E0628261064ACE
:1029F0001032126802F07002C261044A126802F0DA
:102A00000F020A6070470000104402580020005274
:102A100010B500F047F80D490968C1F303210C4ACD
:102A2000515C01F01F0120FA01F40848006800F031
:102A30000F001146085C00F01F0024FA00F0054961
:102A40000860054804600846006810BD1844025834
:102A5000A88900081C0000241800002400B5FFF716
:102A6000D7FF05490968C1F30211044A515C01F01E
:102A70001F01C84000BD00001C440258A88900087E
:102A800000B5FFF7C5FF05490968C1F30221044AF3
:102A9000515C01F01F01C84000BD00001C440258F9
:102AA000A8890008F0B5824E366806F0380636B1BF
:102AB000082E15D0102E15D0182E7DD114E07C4E86
:102AC000103E3668C6F3401646B1794E103E366861
:102AD000C6F3C107774E26FA07F000E07548E5E037
:102AE0007548E3E07548E1E0714E1836366806F047
:102AF00003046F4E18363668C6F305116C4E1C364B
:102B0000366806F001056A4E24363668C6F3CC06F0
:102B100016FB05F601EE106AB8EE410A002971D0E5
:102B200024B1012C50D0022C6DD16DE0604E103ECE
:102B30003668C6F340163EB35D4E103E3668C6F3A7
:102B4000C1075C4E26FA07F301EE103AF8EE411A7F
:102B500001EE101AB8EE411A81EE812A9FED581A43
:102B6000C0EE011A524E20363668C6F3080601EE52
:102B7000106AB8EE411A31EE811AF7EE001A31EE02
:102B8000211A62EE010A1EE001EE101AB8EE411A97
:102B9000DFED4C1A81EE812A9FED491AC0EE011A31
:102BA000434E20363668C6F3080601EE106AB8EECA
:102BB000411A31EE811A00E076E0F7EE001A31EEAC
:102BC000211A62EE010A5BE001EE101AB8EE411A1A
:102BD0009FED3D2AC2EE011A9FED391A80EE012ABF
:102BE000334E20363668C6F3080601EE106AB8EE9A
:102BF000411A32EE011AB7EE002A31EE021A61EEE6
:102C0000810A3DE04EE01DE001EE101AB8EE411AD7
:102C1000DFED2E1A81EE812A9FED291AC0EE011AEE
:102C2000234E20363668C6F3080601EE106AB8EE69
:102C3000411A31EE811AF7EE001A31EE211A62EED6
:102C4000010A1DE001EE101AB8EE411A9FED1E2A8E
:102C5000C2EE011A9FED1A1A80EE012A144E203698
:102C60003668C6F3080601EE106AB8EE411A32EE75
:102C7000011AB7EE002A31EE021A61EE810A00BF96
:102C800000BF0B4E20363668C6F34626721C01EE96
:102C9000102AB8EE411AC0EE811ABCEEE11A11EE0C
:102CA000100A00E0002001E0034800BF00BFF0BDB3
:102CB000104402580090D00300093D0000366E0118
:102CC000000000460024744C0024744A001BB74BDB
:102CD0002DE9F047044614B90120BDE8F0872078BB
:102CE00000F00100002870D0F948006800F03808B2
:102CF000F7481830D0F80090B8F1100F06D0B8F1AE
:102D0000180F0FD109F0030002280BD1F04810383A
:102D10000068C0F3404000286AD06068002867D18E
:102D20000120DAE700BF6068B0F5803F08D1E848CD
:102D30001038006840F48030E549103908602EE012
:102D4000606868B9E2481038006820F48030E049D3
:102D5000103908600846006820F4802008601EE0F2
:102D60006068B0F5A02F0DD1D9481038006840F444
:102D70008020D749103908600846006840F4803048
:102D800008600CE0D2481038006820F48030D04948
:102D9000103908600846006820F48020086000BFF1
:102DA000606898B1FEF724FA054606E0FEF720FABF
:102DB000401B642801D903208FE7C54810380068FC
:102DC000C0F340400028F1D012E012E0FEF710FA04
:102DD000054606E0FEF70CFA401B642801D90320E3
:102DE0007BE7BB4810380068C0F340400028F1D1B1
:102DF00000BF207800F00200022879D1B4480068B2
:102E000000F03808B2481830D0F80090B8F1000F40
:102E100005D0B8F1180F35D109F0030088BBAC48D4
:102E200010380068C0F3800018B1E06808B90120CC
:102E300053E7A7481038006820F01900E1680843FC
:102E4000A34910390860FEF7D3F9054606E0FEF7FE
:102E5000CFF9401B022801D903203EE79C481038D7
:102E60000068C0F380000028F1D099480C38006851
:102E700020F0FE40217C40EA016095490C39086051
:102E800045E0FFE7E06838B391481038006820F06B
:102E90001900E16808438E4910390860FEF7A8F967
:102EA000054606E0FEF7A4F9401B022801D90320DD
:102EB00013E7874810380068C0F380000028F1D07D
:102EC00083480C38006820F0FE40217C40EA016015
:102ED0007F490C3908601AE07D481038006820F0FE
:102EE00001007B4910390860FEF782F9054607E0CA
:102EF0000EE0FEF77DF9401B022801D90320ECE625
:102F0000734810380068C0F380000028F1D100BF7A
:102F1000207800F0100010286FD16D48006800F094
:102F200038086B481830D0F80090B8F1080F06D078
:102F3000B8F1180F1CD109F00300012818D164481A
:102F400010380068C0F3002020B1E069802801D06B
:102F50000120C2E600BF5E48001F006820F07C50E0
:102F600094F8201040EA01605949091F086043E0C5
:102F7000E06938B356481038006840F08000544982
:102F800010390860FEF734F9054606E0FEF730F91F
:102F9000401B022801D903209FE64D4810380068E5
:102FA000C0F300200028F1D000BF4948001F00688E
:102FB00020F07C5094F8201040EA01604449091F39
:102FC000086019E042481038006820F0800040494D
:102FD00010390860FEF70CF9054606E0FEF708F91F
:102FE000401B022801D9032077E6394810380068D1
:102FF000C0F300200028F1D100BF207800F00800C5
:10300000082836D16069D0B131486430006840F09A
:1030100001002F4964310860FEF7EAF8054606E032
:10302000FEF7E6F8401B022801D9032055E62848A0
:1030300064300068C0F340000028F1D019E0244853
:103040006430006820F00100214964310860FEF717
:10305000CFF8054606E0FEF7CBF8401B022801D961
:1030600003203AE61A4864300068C0F340000028A4
:10307000F1D1207800F02000202838D1A069D0B10B
:1030800013481038006840F4805011491039086026
:10309000FEF7AEF8054606E0FEF7AAF8401B022848
:1030A00001D9032019E60A4810380068C0F34030FF
:1030B0000028F1D01BE006481038006820F480504A
:1030C000034910390860FEF793F8054609E000004F
:1030D00010440258FEF78CF8401B022801D9032047
:1030E000FBE5D0480068C0F340300028F2D12078DA
:1030F00000F0040004287DD1CB48006840F48070C3
:10310000C9490860FEF774F8054606E0FEF770F856
:10311000401B642801D90320DFE5C348006800F4A0
:1031200080700028F2D000BFA068012808D1BD48F7
:103130007030006840F00100BA49703108602DE03D
:10314000A06868B9B7487030006820F00100B54940
:10315000703108600846006820F0040008601DE037
:10316000A06805280DD1AF487030006840F0040019
:10317000AC49703108600846006840F00100086002
:103180000CE0A8487030006820F00100A5497031BB
:1031900008600846006820F00400086000BFA068CE
:1031A000A0B1FEF725F8054608E0FEF721F8401B20
:1031B00041F28831884201D903208EE59948703068
:1031C0000068C0F340000028EFD013E0FEF710F8CD
:1031D000054608E0FEF70CF8401B41F288318842B2
:1031E00001D9032079E58F4870300068C0F34000B2
:1031F0000028EFD1606A00287DD08A48103000682E
:1032000000F03800182877D0606A022875D1854808
:10321000006820F0807083490860FDF7E9FF0546EB
:1032200006E0FDF7E5FF401B022801D9032054E525
:103230007C480068C0F340600028F2D100BFD4E9A8
:103240000A1041EA001077492831096840F2F33248
:1032500091430843734928310860208E401EC0F313
:103260000800616B491E4FF47E4202EA4121084387
:10327000218F491ED20102EA014108433C21095D28
:10328000491E120202EA01610843664930310860B2
:1032900000BF081F006820F00100091F0860614896
:1032A000343000684FF6F8718843A16C40EAC100E1
:1032B0005C49343108605B482C30006820F00C0019
:1032C000216C084357492C3108600846006820F0FB
:1032D0000200616C084353492C31086008460068BD
:1032E00040F4803008600846006840F40030086010
:1032F0000846006802E092E038E01FE040F48020D9
:1033000008600846006840F0010008604548006811
:1033100040F0807043490860FDF76AFF054606E00B
:10332000FDF766FF401B022801D90320D5E43D4884
:103330000068C0F340600028F2D070E039480068AF
:1033400020F0807037490860FDF752FF054606E01F
:10335000FDF74EFF401B022801D90320BDE4314890
:103360000068C0F340600028F2D158E02D482830B2
:1033700007682C4830300668606A012821D007F0C1
:103380000301A06A81421CD1C7F30511E06A88429B
:1033900017D1C6F30801206B401E814211D1606B2A
:1033A000401EC6F3462188420BD1A06B401EC6F3D7
:1033B0000641884205D1E06B401EC6F30661884293
:1033C00001D0012089E4174834300068C0F3CC07ED
:1033D000A06CB84223D013482C30006820F00100C4
:1033E00010492C310860FDF703FF054600BFFDF7CB
:1033F000FFFE401BFBD00B48343000684FF6F871DD
:103400008843A16C40EAC100064934310860054890
:103410002C30006840F0010002492C310860002087
:103420005BE4000000440258004802582DE9F041D6
:1034300004460D4616461F4614B90120BDE8F0812A
:10344000D4F8880028B9002084F88400204601F0D0
:10345000D5F92420C4F888002068006820F0010015
:1034600021680860204602F0B5FB012800D1E5E79D
:10347000A06A10B1204602F061FA2068806840F42A
:103480008040216888602068806820F400402843DC
:10349000216888604FEA465848EA07482068006873
:1034A0000749084040EA0800216808602068006871
:1034B00040F0010021680860204602F0BBFABDE739
:1034C000FFFF00FC70B504460CB9012070BD606AB6
:1034D00000B900BF0021A1626349206888420CD076
:1034E00062492068884208D061492068884204D037
:1034F000E0680F2801D90120E8E7204601F09DFE91
:10350000054659492068884209D0584920688842B0
:1035100005D057492068884201D0082D0DD852495E
:103520002068884207D051492068884203D050491A
:103530002068884203D1102D01D90120C6E794F8F4
:10354000810028B9002084F88000204600F092F81D
:10355000022084F881002068006820F001002168C2
:1035600008602068806800F4F816A069B0F1806FE8
:1035700011D16068B0F5800F01D1A06B28B16068EF
:1035800048B9A06BB0F1805F05D12068006840F4B5
:10359000805021680860606800F48000B0F5800FFA
:1035A0000BD1E068072808D32068006820F48070F9
:1035B000216D08432168086005E02068006820F458
:1035C000807021680860A16AE06908433043E16BBC
:1035D0000843E168084321688860616A606B0843BA
:1035E000A16B0843A1690843216908436169084345
:1035F000216A084361680843E16C0843A1680843F5
:10360000A16C0843A16D08432168C860606878B95F
:103610002068806820F4C05040F400602168886011
:103620002068806820F4C06040F480602168886071
:103630002068006D20F0010021680865606800F4D2
:103640008000B0F5800F07D12068C06820F00040EE
:10365000616D08432168C8600020C4F8840001201F
:1036600084F88100002031E700300140003800403C
:10367000003C004010B5B6B00446142130A8FCF759
:10368000B9FFB82102A8FCF7B5FF2049206888429D
:1036900039D14FF480410020CDE902104FF0A04015
:1036A0002D9002A8FEF78AF908B1FDF75DF800BF7A
:1036B0001748006840F02000154908600846006877
:1036C00000F02000019000BF00BF00BF1048143878
:1036D000006840F001000E4914390860084600688F
:1036E00000F00100019000BF00BFA0203090022038
:1036F000319000203290032033900820349030A97C
:103700000448FDF76FFC36B010BD000000140058EF
:10371000F4440258000002582DE9F84F0446884648
:1037200017461D46206800F120094FF0000A00BF2F
:1037300094F88000012802D10220BDE8F88F012012
:1037400084F8800000BFFDF753FD064694F8810021
:10375000012808D04FF0020A00BF002084F8800042
:1037600000BF5046E9E7B8F1000F00D047B94FF06D
:10377000010A00BF002084F8800000BF5046DCE74B
:1037800003205C3484F825000020A062C4F8008087
:10379000A780E780A060A081E081A06160615C3CBF
:1037A000A068B0F5C02F06D12068006840F4006022
:1037B0002168086007E02068C06820F4C02040F459
:1037C00000302168C860206840686FF30F003843FC
:1037D000216848602068006840F0010021680860A6
:1037E0006068B0F5800F05D12068006840F4007073
:1037F00021680860E0680F2833D92DE0206840690F
:1038000000F0020002280CD1E06D00682168086217
:10381000E06D001DE065B4F86200401EA4F862008F
:103820001AE0FDF7E5FC801BA84201D3681C00B933
:1038300095B9204601F096FC00BF002084F8800076
:1038400000BFD4F8840040F48070C4F884000120E4
:1038500084F88100032070E7B4F862000028CDD11D
:10386000A4E0E068072846D940E02068406900F0FD
:10387000020002281FD1B4F8620001280ED9E06BC3
:1038800060B1E06D006821680862E06D001DE065D0
:10389000B4F86200801EA4F8620027E0E06D0088A2
:1038A000A9F80000E06D801CE065B4F86200401EDD
:1038B000A4F862001AE0FDF79BFC801BA84201D32C
:1038C000681C00B995B9204601F04CFC00BF0020EF
:1038D00084F8800000BFD4F8840040F48070C4F8FD
:1038E0008400012084F88100032026E7B4F86200F8
:1038F0000028BAD15AE055E02068406900F0020083
:10390000022834D1B4F8620003280FD9E06B4028B4
:103910000CD9E06D006821680862E06D001DE0656B
:10392000B4F86200001FA4F862003BE0B4F8620043
:1039300001280ED9E06B60B1E06D0088A9F80000A5
:10394000E06D801CE065B4F86200801EA4F862009F
:1039500028E0E06D0078216881F82000E06D401CCF
:10396000E065B4F86200401EA4F862001AE0FDF7BA
:103970003FFC801BA84201D3681C00B995B92046C2
:1039800001F0F0FB00BF002084F8800000BFD4F8F5
:10399000840040F48070C4F88400012084F8810021
:1039A0000320CAE6B4F862000028A5D12B46002205
:1039B00008212046009601F04DFC28B1D4F884007F
:1039C00040F02000C4F88400204601F0CBFB00BF8B
:1039D000002084F8800000BF012084F88100D4F822
:1039E000840008B10120A8E65046A6E6704770475B
:1039F0007047000030B502460B4600BF92F83C000D
:103A0000012801D1022030BD012082F83C0000BF16
:103A1000022082F83D001068416810688468254DD6
:103A20001068A84203D0244D1068A84203D121F4A5
:103A300070015868014321F0700118680143106853
:103A400041601C4D1068A84223D01068B0F1804F2F
:103A50001FD01A4D1068A8421BD0194D1068A842FB
:103A600017D0184D1068A84213D0134D1068A84203
:103A70000FD0154D1068A8420BD0144D1068A84205
:103A800007D0134D1068A84203D0124D1068A84209
:103A900005D124F0800498680443106884600120F4
:103AA00082F83D0000BF002082F83C0000BF00BF4C
:103AB000A9E70000000001400004014000040040AC
:103AC00000080040000C0040001800400040014089
:103AD00000E0004000E4004010B504460CB90120AD
:103AE00010BD94F83D0028B9002084F83C00204621
:103AF00000F029F8022084F83D00211D206801F023
:103B0000BBFC012084F8480000BF84F83E0001217E
:103B10003F200155402001554120015542200155CB
:103B20004320015500BF00BF012084F84400452018
:103B30000155462001554720015500BF012084F85A
:103B40003D000020CCE77047014691F83D00012878
:103B500001D001207047022081F83D000868C0684C
:103B600040F001000B68D860204B0868984223D0D1
:103B70000868B0F1804F1FD01D4B086898421BD0D9
:103B80001C4B0868984217D01B4B0868984213D00A
:103B90001A4B086898420FD0194B086898420BD00E
:103BA000184B0868984207D0174B0868984203D012
:103BB000164B0868984210D108688068144B00EAD8
:103BC0000302062A0FD0B2F5803F0CD008680068C7
:103BD00040F001000B68186005E00868006840F0DC
:103BE00001000B6818600020B4E7000000000140ED
:103BF0000004004000080040000C004000040140A8
:103C0000001800400040014000E0004000E4004097
:103C100007000100704710B5044620680069C0F332
:103C20004000D8B12068C068C0F34000B0B16FF068
:103C3000020021680861012020772068806900F077
:103C4000030018B12046FFF7E5FF05E0204600F02D
:103C5000EFF8204600F0F4F9002020772068006992
:103C6000C0F38000D8B12068C068C0F38000B0B154
:103C70006FF00400216808610220207720688069C5
:103C800000F4407018B12046FFF7C4FF05E020465D
:103C900000F0CEF8204600F0D3F90020207720680D
:103CA0000069C0F3C000D8B12068C068C0F3C0008C
:103CB000B0B16FF008002168086104202077206807
:103CC000C06900F0030018B12046FFF7A3FF05E02C
:103CD000204600F0ADF8204600F0B2F90020207731
:103CE00020680069C0F30010D8B12068C068C0F334
:103CF0000010B0B16FF01000216808610820207733
:103D00002068C06900F4407018B12046FFF782FFB8
:103D100005E0204600F08CF8204600F091F90020E4
:103D200020772068006900F0010058B12068C06861
:103D300000F0010030B16FF00100216808612046F9
:103D400000F03EFA20680069C0F3C01058B1206846
:103D5000C068C0F3C01030B16FF080002168086106
:103D60002046FFF744FE20680069C0F3002058B1E8
:103D70002068C068C0F3C01030B16FF48070216853
:103D800008612046FFF732FE20680069C0F380100A
:103D900058B12068C068C0F3801030B16FF04000A7
:103DA00021680861204600F017FA20680069C0F316
:103DB000401058B12068C068C0F3401030B16FF0B7
:103DC0002000216808612046FFF712FE10BD0000A8
:103DD00010B586B00446142101A8FCF70BFC11496C
:103DE000206888421BD100BF0F48006840F00200E5
:103DF0000D4908600846006800F00200009000BF0E
:103E000000BF4FF400400190022002900020039078
:103E100004900220059001A90448FDF7E3F806B0DC
:103E200010BD000000180040E04402580004025891
:103E300070472DE9F04104460D461646002700BFA5
:103E400094F83C00012802D10220BDE8F081012055
:103E500084F83C0000BF0C2E51D005DC4EB1042E7E
:103E60001ED0082E7AD133E0102E60D0142EF9D156
:103E700075E02946206801F081FB2068806940F0E8
:103E80000800216888612068806920F004002168AA
:103E9000886120688069296908432168886178E021
:103EA0002946206801F0C0FB2068806940F400606A
:103EB000216888612068806920F4806021688861B9
:103EC00020688069296940EA01202168886160E0F2
:103ED0002946206801F002FC2068C06940F0080013
:103EE0002168C8612068C06920F004002168C861A9
:103EF0002068C069296908432168C86149E02946EA
:103F0000206801F045FC2068C06940F40060216829
:103F1000C8612068C06920F480602168C861206899
:103F2000C069296940EA01202168C86131E0294659
:103F3000206801F067FC2068406D40F008002168AF
:103F400048652068406D20F00400216848652068BD
:103F5000406D29690843216848651AE017E0294641
:103F6000206801F087FC2068406D40F40060216803
:103F700048652068406D20F48060216848652068AD
:103F8000406D296940EA01202168486501E0012768
:103F900000BF00BF00BF002084F83C0000BF3846CF
:103FA00053E710B504460CB9012010BD94F83D004C
:103FB00028B9002084F83C00204600F029F80220AF
:103FC00084F83D00211D206801F056FA012084F894
:103FD000480000BF84F83E0001213F2001554020E9
:103FE000015541200155422001554320015500BF94
:103FF00000BF012084F844004520015546200155AA
:104000004720015500BF012084F83D000020CCE787
:1040100008B5094A016891420DD100BF07490968F6
:1040200041F04001054A11601146096801F0400164
:10403000009100BF00BF08BD00180040E8440258CE
:104040007047000070B504460D4615B994F83E005F
:1040500015E0042D02D13F20005D10E0082D02D1B3
:104060004020005D0BE00C2D02D14120005D06E0F8
:10407000102D02D14220005D01E04320005D0128A7
:1040800001D0012070BD1DB9022084F83E001AE065
:10409000042D03D102213F20015514E0082D03D146
:1040A0000221402001550EE00C2D03D102214120B8
:1040B000015508E0102D03D102214220015502E0F4
:1040C00002214320015501222946206801F044FACB
:1040D0002F49206888420FD02E49206888420BD093
:1040E0002D492068884207D02C492068884203D097
:1040F0002B492068884201D1012000E0002028B12E
:104100002068406C40F400402168486420492068E1
:10411000884223D02068B0F1804F1FD02149206809
:1041200088421BD020492068884217D01F49206848
:10413000884213D01749206888420FD01C49206854
:1041400088420BD014492068884207D0194920685A
:10415000884203D018492068884210D120688068BE
:10416000164900EA0106062E0FD0B6F5803F0CD0A6
:104170002068006840F001002168086005E02068C0
:10418000006840F001002168086000207AE7000024
:104190000000014000040140004001400044014093
:1041A000004801400004004000080040000C0040AE
:1041B0000018004000E0004000E40040070001005B
:1041C00010B5044603492068884201D1FDF716F86E
:1041D00010BD0000001000407047014600BF91F87C
:1041E0008400012801D102207047012081F8840059
:1041F00000BF2420C1F888000868026808680068C9
:1042000020F001000B68186022F000520020486680
:10421000086802602020C1F8880000BF002081F8F3
:10422000840000BF00BFDFE77047704770B50446E9
:104230000D4600BF94F88400012801D1022070BD12
:10424000012084F8840000BF2420C4F8880020687E
:1042500006682068006820F0010021680860206876
:10426000806820F06060284321688860204601F063
:1042700039FB206806602020C4F8880000BF0020B9
:1042800084F8840000BF00BFD9E770B504460D462E
:1042900000BF94F88400012801D1022070BD0120E4
:1042A00084F8840000BF2420C4F8880020680668D1
:1042B0002068006820F0010021680860206880689C
:1042C00020F06040284321688860204601F00AFB06
:1042D000206806602020C4F8880000BF002084F811
:1042E000840000BF00BFD9E77047704770470000E7
:1042F0002DE9F04704462068C569206806682068F3
:10430000876840F60F0005EA0009B9F1000F0FD1E8
:1043100005F0200060B106F0200010B907F08050D1
:1043200030B1606F10B12046616F8847BDE8F087FB
:10433000B9F1000F7ED0FE48384018B9FD48304032
:104340000028F7D005F0010058B106F4807040B1A4
:10435000012021680862D4F8900040F00100C4F800
:10436000900005F0020058B107F0010040B10220B2
:1043700021680862D4F8900040F00400C4F890006E
:1043800005F0040058B107F0010040B10420216895
:104390000862D4F8900040F00200C4F8900005F0E4
:1043A000080070B106F0200010B9E148384040B173
:1043B000082021680862D4F8900040F00800C4F892
:1043C000900005F4006060B106F0806048B14FF4E1
:1043D000006021680862D4F8900040F02000C4F822
:1043E0009000D4F89000002852D005F0200050B181
:1043F00006F0200010B907F0805020B1606F10B1B6
:104400002046616F8847D4F890A02068806800F04B
:104410004000402802D00AF0280070B3204601F086
:104420008BFB2068806800F04000402826D100BF48
:1044300000BF00E02DE02168083151E8001F21F0A5
:1044400040002168083141E80002002AF1D100BF94
:10445000D4F8800068B1B848D4F880100865D4F862
:104460008000FCF7F3FB98B1D4F88000016D884719
:104470000EE02046FFF73AFF0AE003E02046FFF790
:1044800035FF05E02046FFF731FF0020C4F890001B
:104490004CE7E06E01287DD105F01000002879D0AE
:1044A00006F010000028FAD0102021680862206869
:1044B000806800F0400040286DD1D4F8800000688A
:1044C0009E4988426BD0D4F8800000689B4918311F
:1044D000884264D0D4F8800000689849303188421E
:1044E0005DD0D4F88000006894494831884256D0A5
:1044F000D4F8800000689149603188424FD0D4F8E8
:10450000800000688D497831884248D0D4F8800016
:1045100000688A499031884241D0D4F88000006810
:104520008649A83188423AD0D4F88000006884498E
:10453000884234D0D4F8800000688149183188421C
:104540002DD0D4F8800000687D493031884226D0D3
:10455000D4F8800000687A49483188421FD0D4F8E6
:104560008000006876496031884218D0D4F8800015
:10457000006873497831884211D0D4F8800000680F
:104580006F49903188420AD0D4F8800000686C49A5
:10459000A83102E0AEE069E001E0884204D1D4F83D
:1045A00080000068406803E0D4F88000006840683C
:1045B0001FFA80F8B8F1000F57D0B4F85C004045FE
:1045C00053DDA4F85E80D4F88000C069B0F5807F28
:1045D00040D000BF00BF216851E8001F21F4807067
:1045E000226842E800010029F5D100BF00BF00BFEA
:1045F0002168083151E8001F21F0010021680831CD
:1046000041E80002002AF3D100BF00BF00BF2168CB
:10461000083151E8001F21F040002168083141E8CD
:104620000002002AF3D100BF2020C4F88C00002033
:10463000E06600BF00BF216851E8001F21F01000B4
:10464000226842E800010029F5D100BFD4F88000BB
:10465000FCF78EF802202067B4F85C00B4F85E2006
:10466000801A81B22046FFF7DFFD5FE634F85C0F69
:104670006188401A1FFA80F860885C3CC8B3B8F1C2
:10468000000F36D000BF00BF216851E8001F21F4A1
:104690009070226842E800010029F5D100BF00BFF8
:1046A00000BF2168083151E8001F214AD24301EAC6
:1046B00002002168083141E80002002AF1D100BF60
:1046C0002020C4F88C000020E066606700BF00BFB7
:1046D000216851E8001F21F01000226842E8000123
:1046E0000029F5D100BF0220206741462046FFF790
:1046F0009BFD1BE605F4801050B107F4800038B133
:104700004FF48010216808622046FFF7EEFD0DE6A9
:1047100005F08000B0B106F0800010B907F4000089
:1047200080B1A06F10B12046A16F8847FEE5000060
:1047300001000010200100041F5B0008100002406F
:104740001004024005F0400030B106F0400018B1FE
:10475000204601F027FAE9E505F4000030B106F043
:10476000804018B12046FFF7BFFDDFE505F08070FF
:1047700030B106F0004018B12046FFF756FDD5E5F0
:1047800000BFD3E510B504460CB9012010BDA069E7
:1047900000B100E000BFD4F8880028B9002084F8F8
:1047A0008400204600F02AF82420C4F888002068FD
:1047B000006820F0010021680860204601F00AFA34
:1047C000012800D1E2E7A06A10B1204601F0B6F856
:1047D0002068406820F49040216848602068806824
:1047E00020F02A00216888602068006840F00100FD
:1047F00021680860204601F01DF9C7E710B5B6B082
:104800000446142130A8FBF7F5FEB82102A8FBF7F7
:10481000F1FE7649206888423FD101210020CDE990
:104820000210209002A8FDF7C9F808B1FBF79CFF21
:1048300000BF6F48006840F010006D4908600846EE
:10484000006800F01000019000BF00BF00BF684882
:104850001038006840F001006549103908600846CA
:10486000006800F00100019000BF00BF4FF4C0607D
:104870003090022031900020329033900720349005
:1048800030A95C48FCF7AEFB002205212520FCF78F
:10489000D1FD2520FCF7BAFDA5E0574920688842E4
:1048A00040D102210020CDE902101F9002A8FDF79F
:1048B00085F808B1FBF758FF00BF4D48083800687D
:1048C00040F400304A49083908600846006800F49E
:1048D0000030019000BF00BF00BF4548103800689D
:1048E00040F008004249103908600846006800F0AE
:1048F0000800019000BF00BF70203090022031906E
:104900000020329033900720349030A93B48FCF7C8
:1049100069FB002206212620FCF78CFD2620FCF7EF
:1049200075FD60E03649206888425CD10220002194
:10493000CDE9020100201F9002A8FDF73FF808B161
:10494000FBF712FF00BF2A480838006840F48020B7
:104950002749083908600846006800F48020019063
:1049600000BF00BF00BF22481038006840F00200BE
:104970001F49103908600846006800F002000190E5
:1049800000BF00BF00BF0846006840F00800086094
:104990000846006800F00800019000BF00BF4FF417
:1049A00080403090022031900020329033900720D8
:1049B000349030A91348FCF715FB4FF44070309049
:1049C000022031900020329033900720349030A99B
:1049D0000A48FCF707FB002206212720FCF72AFDE6
:1049E0002720FCF713FD36B010BD00000010014079
:1049F000F04402580000025800440040000C0258E5
:104A000000480040000402582DE9F84F04460E46C5
:104A100017469946D4F88800202854D106B117B912
:104A20000120BDE8F88F00205434E063212060634A
:104A3000FCF7DEFB824627806780543CA068B0F517
:104A4000805F04D1206910B90025B04602E03546E8
:104A50004FF0000820E05346002280212046CDF888
:104A6000009001F0CBFB20B12020C4F88800032087
:104A7000D7E745B9B8F80000C0F30800216888629C
:104A800008F1020803E02878216888626D1CB4F8F8
:104A90005600401EA4F85600B4F856000028DAD19B
:104AA0005346002240212046CDF8009001F0A6FB9D
:104AB00020B12020C4F888000320B2E72020C4F8E9
:104AC00088000020ADE70220ABE7704700BFFEE79B
:104AD0001FB500200090019002900390FCF748FC65
:104AE00001208DF8000000208DF8010001901F20AA
:104AF0008DF8080087208DF8090000208DF80A0045
:104B00008DF80B0001208DF80C008DF80D000020B1
:104B10008DF80E008DF80F006846FCF7FBFB0420B3
:104B2000FCF73CFC1FBD000010B50B4A00210B48F0
:104B300001F08EFE0A4908600A4A00210A4801F085
:104B400087FE0A4908600A4A00210A4801F080FEEF
:104B50000949086010BD0000148900089952000836
:104B60000000002438890008A5740008040000240F
:104B70005C890008456600080800002400B587B07D
:104B8000142102A8FBF736FD00BF3048006840F052
:104B900004002E4908600846006800F004000190F7
:104BA00000BF00BF00BF0846006840F080000860FA
:104BB0000846006800F08000019000BF00BF00BF01
:104BC0000846006840F0010008600846006800F0F0
:104BD0000100019000BF00BF00BF0846006840F020
:104BE000020008600846006800F00200019000BF63
:104BF00000BF00BF0846006840F008000860084693
:104C0000006800F00800019000BF00BF01224FF4CF
:104C100060410F48FCF7E6FA4FF460400290012033
:104C2000039000200490059002A90948FCF7DAF9E6
:104C30004FF400400290002003900120049002A94C
:104C40000448FCF7CFF907B000BD0000E04402586B
:104C5000000802580000025810B5164816490860AE
:104C60004FF4800048604111134881600721C16002
:104C7000002101614FF080714161890081618900EB
:104C8000C1610021016241628162C1624FF08041D5
:104C9000416300218163C163016441648164C16433
:104CA000016541658165FEF70DFC08B1FBF75CFD10
:104CB00010BD000000140058B800002400B58BB0EF
:104CC0000020089009900A901C2101A8FBF792FC93
:104CD000174818490860172048600021154881606E
:104CE00040F2CF71C160002101618161FFF759F984
:104CF00008B1FBF739FD002008900A9008A90D487B
:104D0000FEF778FE08B1FBF72FFD60200190002030
:104D1000029003900590042201A90648FFF789F844
:104D200008B1FBF721FD0348FFF752F80BB000BDB7
:104D3000001800404001002410B5184818490860C8
:104D40004FF4E1304860002115488160C160016185
:104D50000C21416100218161C16101624162002039
:104D60000F4988620846FFF70DFD08B1FBF7FCFC10
:104D700000210B48FFF789FA08B1FBF7F5FC002189
:104D80000748FFF753FA08B1FBF7EEFC0448FFF7BA
:104D900024FA08B1FBF7E8FC10BD00000010014048
:104DA0008C01002410B51A481A4908601A48486056
:104DB000002118488160C16001610C21416100211E
:104DC00081614FF40041C161002101624162002014
:104DD0001049886200231A4619460E48FEF726FB42
:104DE00008B1FBF7C1FC00210A48FFF74EFA08B1F1
:104DF000FBF7BAFC00210748FFF718FA08B1FBF7E8
:104E0000B3FC0448FFF7E9F908B1FBF7ADFC10BDAE
:104E1000004400402002002400093D0010B51A485B
:104E20001A4908601A484860002118488160C1602A
:104E300001610C214161002181614FF40041C16198
:104E400000210162416200201049886200231A4655
:104E500019460E48FEF7EAFA08B1FBF785FC002177
:104E60000A48FFF712FA08B1FBF77EFC0021074859
:104E7000FFF7DCF908B1FBF777FC0448FFF7ADF961
:104E800008B1FBF771FC10BD00480040B4020024DB
:104E900000093D0000BFFEE700BFFEE72DE9F0413D
:104EA00004460E4600275548006800F0030003281A
:104EB00002D10120BDE8F08150482838006820F078
:104EC00080604E4928390860FCF792F9054606E0F3
:104ED000FCF78EF9401B022801D90320EAE7474876
:104EE00028380068C0F3C0600028F1D100BF4348F3
:104EF000006820F47C30216840EA01303F490860B6
:104F0000A088401EC0F30800A168491E4FF47E42ED
:104F100002EA41210843A189491ED20102EA014166
:104F20000843217C491E120202EA01610843334909
:104F30001031086000BF3148001D006820F0C0003B
:104F4000616908432D49091D08600846006820F082
:104F50002000A16908432949091D08600846006826
:104F600020F0100008602548143000684FF6F871F2
:104F70008843E16940EAC1002049143108601F48B4
:104F8000001D006840F010001C49091D08602EB982
:104F90000846006840F40020086012E0012E08D1A5
:104FA0001648001D006840F480101449091D08606F
:104FB00007E01248001D006840F400100F49091D69
:104FC00008600E482838006840F080600B49283996
:104FD0000860FCF70DF9054606E0FCF709F9401BEF
:104FE000022801D9032065E7044828380068C0F387
:104FF000C0600028F1D038465CE700002844025821
:105000002DE9F04104460E4600275548006800F09F
:105010000300032802D10120BDE8F0815048283860
:10502000006820F080504E4928390860FCF7E0F80D
:10503000054606E0FCF7DCF8401B022801D90320F6
:10504000EAE7474828380068C0F340700028F1D1EB
:1050500000BF4348006820F07C70218840EA01507E
:105060003F490860A088401EC0F30800A168491E9F
:105070004FF47E4202EA41210843A189491ED20130
:1050800002EA01410843217C491E120202EA016141
:10509000084333491831086000BF3148001D0068DB
:1050A00020F44060616908432D49091D08600846E5
:1050B000006820F40070A16908432949091D0860AF
:1050C0000846006820F48070086025481C3000689D
:1050D0004FF6F8718843E16940EAC10020491C316C
:1050E00008601F48001D006840F480701C49091DBD
:1050F00008602EB90846006840F48000086012E09D
:10510000012E08D11648001D006840F40000144923
:10511000091D086007E01248001D006840F080701B
:105120000F49091D08600E482838006840F080507B
:105130000B4928390860FCF75BF8054606E0FCF7E8
:1051400057F8401B022801D9032065E70448283896
:105150000068C0F340700028F1D038465CE70000DA
:1051600028440258026851690268926942F00802B4
:1051700003689A610268926942F0100203689A61BA
:105180000268126822F0010203681A60026812695C
:1051900040F26F339A4303681A610268926822F4FE
:1051A000404203689A6090F88120042A0ED001F0F2
:1051B00020025AB1D0F8842042F08002C0F8842046
:1051C0000268926942F0200203689A6190F8812097
:1051D000032A0ED001F040025AB1D0F8842042F0E8
:1051E0000402C0F884200268926942F04002036819
:1051F0009A6101F400725AB1D0F8842042F00102A1
:10520000C0F884200268926942F4007203689A61CF
:1052100001F480725AB1D0F8842042F00802C0F83C
:1052200084200268926942F4807203689A610022C5
:10523000A0F86220A0F86A20704710B5014601244A
:10524000C86B04EB5013C868421CD01DC20802FB97
:1052500003F010BD2DE9F04106460D4617461C46E9
:10526000DDF818800BE0FBF7C3FFA0EB0800A042BD
:1052700001D3601C00B914B90320BDE8F081306887
:1052800040692840A84201D1012000E00020B84236
:10529000E9D00020F1E7000000BF4FF400410548CD
:1052A000FBF798FF10B9022003490870022001F0B3
:1052B00079FAF2E700000258A400002410B54FF07C
:1052C000E020006903F0CAF8012801D002F014FDC3
:1052D00010BD000000B59DB04C210AA8FBF78AF96B
:1052E000202102A8FBF786F90220FCF7F5F800BFA1
:1052F000002001902348006820F4404021490860C4
:105300000846006800F44040019000BF00BF00BFA5
:105310001C48006800F40050B0F5005FF8D101208F
:105320000A9000040B900220139002211491159111
:1053300028211691012117910221189119910C2110
:105340001A9100211B911C910AA8FDF7C1FC08B11C
:10535000FBF70AFA3F2002900320039000200490FC
:1053600008200590402006900790000108904020FA
:105370000990032102A8FDF785F908B1FBF7F4F9BC
:105380001DB000BD184802582F48006840F4700056
:105390002D4908602D48006800F00F00072806D24C
:1053A0002A48006820F00F00C01D284908602848DE
:1053B000006840F0010026490860002024491031AF
:1053C00008602348006823490840214908601F48B5
:1053D000006800F00F00072806D91C48006820F07C
:1053E0000F00C01D194908600020194918310860D4
:1053F000091D0860091D0860174815492831086013
:105400001648091D08601648091D08600020091D7E
:1054100008601348091D08600020091D0860104835
:10542000091D08600020091D08600948006820F473
:10543000802007490860002005496031086043F278
:10544000D20008490860704788ED00E00020005253
:10545000004402587FEDF6EA000202020000FF015C
:10546000800201010040005210B50248FEF7D3FB54
:1054700010BD00004803002410B502682C4B984270
:105480000ED0B0F1804F0BD02A4B984208D02A4B57
:10549000984205D0294B984202D0294B984203D11B
:1054A00022F070024B681A43214B98421DD0B0F194
:1054B000804F1AD01F4B984217D01F4B984214D0E0
:1054C0001E4B984211D01E4B98420ED01D4B984255
:1054D0000BD01D4B984208D01C4B984205D01C4B5A
:1054E000984202D01B4B984203D122F44072CB6801
:1054F0001A4322F080034C6943EA040202608B687D
:10550000C3620B6883620A4B98420BD00C4B9842E3
:1055100008D00C4B984205D00B4B984202D00B4B55
:10552000984201D10B6903630123436110BD000060
:10553000000001400004004000080040000C004052
:105540000004014000400140004401400048014087
:1055500000E0004000E4004030B501F01F050124E8
:1055600004FA05F3046A9C430462046A01F01F050F
:1055700002FA05F52C43046230BD000030B5056A1F
:1055800025F001050562026A43688469204D2C40BC
:1055900024F003040D682C4322F002028D682A4394
:1055A0001C4DA84200D10FE01B4DA84200D10BE0DA
:1055B0001A4DA84200D107E0194DA84200D103E0DE
:1055C000184DA84206D100BF22F00802CD682A4338
:1055D00022F004020F4DA8420BD00F4DA84208D074
:1055E0000E4DA84205D00E4DA84202D00D4DA84246
:1055F00007D123F4807323F400734D692B438D6925
:105600002B43436084614D684563026230BD0000F6
:105610008FFFFEFF000001400004014000400140F8
:10562000004401400048014030B5056A25F01005EE
:105630000562026A43688469224D2C4024F4407458
:105640000D6844EA052422F020028D6842EA051222
:105650001D4DA84200D10FE01C4DA84200D10BE027
:105660001B4DA84200D100BF1A4DA84200D100BF77
:10567000194DA84207D106E022F08002CD6842EA27
:10568000051222F04002104DA8420BD00F4DA84247
:1056900008D00F4DA84205D00E4DA84202D00E4DA5
:1056A000A84209D123F4806323F400634D6943EADF
:1056B00085038D6943EA8503436084614D68856392
:1056C000026230BDFF8FFFFE000001400004014078
:1056D00000400140004401400048014030B5056AE7
:1056E00025F480750562026A4368C469224D2C4026
:1056F00024F003040D682C4322F400728D6842EA02
:1057000005221E4DA84200D10FE01D4DA84200D138
:105710000BE01C4DA84200D100BF1B4DA84200D198
:1057200000BF1A4DA84207D106E022F40062CD68FE
:1057300042EA052222F48062104DA8420BD0104D9F
:10574000A84208D00F4DA84205D00F4DA84202D064
:105750000E4DA84209D123F4805323F400534D6920
:1057600043EA05138D6943EA05134360C4614D683C
:10577000C563026230BD00008FFFFEFF00000140E4
:105780000004014000400140004401400048014045
:1057900030B5056A25F480550562036A4468C2691C
:1057A000124D2A4022F440720D6842EA052223F489
:1057B00000538D6843EA05330D4DA8420BD00D4DC3
:1057C000A84208D00C4DA84205D00C4DA84202D0EA
:1057D0000B4DA84204D124F480444D6944EA851459
:1057E0004460C2614D680564036230BDFF8FFFFEF7
:1057F000000001400004014000400140004401401D
:105800000048014030B5056A25F480350562026A1A
:105810004368446D114D2C400D682C4322F4003236
:105820000D8942EA05420E4DA8420BD00D4DA8420B
:1058300008D00D4DA84205D00C4DA84202D00C4D09
:10584000A84204D123F480334D6943EA0523436021
:1058500044654D688565026230BD00008FFFFEFF24
:1058600000000140000401400040014000440140AC
:105870000048014030B5056A25F480150562026ACA
:105880004368446D114D2C400D6844EA052422F410
:1058900000120D8942EA05520D4DA8420BD00D4D64
:1058A000A84208D00C4DA84205D00C4DA84202D009
:1058B0000B4DA84204D123F480234D6943EA85238C
:1058C000436044654D68C565026230BDFF8FFFFED1
:1058D000000001400004014000400140004401403C
:1058E0000048014070B5456E2DB90125A0F86A50F9
:1058F000A0F868501CE0102310240568AD68C5F3BB
:1059000042610568AD686A0F0A4DAD5C15FB04F590
:10591000094EB65C95FBF6F5A0F86A50054D6D5C36
:1059200015FB03F5044E765C95FBF6F5A0F8685080
:1059300070BD000098890008A089000890F8281020
:1059400001F0010139B10168496821F40031C26AEE
:1059500011430268516090F8281001F002010229F9
:1059600007D10168496821F48031026B1143026854
:10597000516090F8281001F00401042907D1016852
:10598000496821F48021426B11430268516090F80C
:10599000281001F00801082907D10168496821F49D
:1059A0000041826B11430268516090F8281001F0A9
:1059B0001001102907D10168896821F48051C26B58
:1059C00011430268916090F8281001F0200120290D
:1059D00007D10168896821F40051026C1143026803
:1059E000916090F8281001F04001402913D101681E
:1059F000496821F48011426C114302685160416C86
:105A0000B1F5801F07D10168496821F4C001826C9B
:105A100011430268516090F8281001F0800180293C
:105A200007D10168496821F40021C26C1143026862
:105A30005160704738B504460020C4F89000FBF769
:105A4000D7FB05462068006800F00800082821D12F
:105A50006FF07E402B4600224FF40011009020464C
:105A600000F0CCFBB0B100BF00BF216851E8001FBF
:105A700021F08000226842E800010029F5D100BF32
:105A80002020C4F8880000BF002084F8840000BFF4
:105A9000032038BD2068006800F00400042830D1DD
:105AA0006FF07E402B4600224FF48001009020468C
:105AB00000F0A4FB28B300BF00BF216851E8001F1D
:105AC00021F49070226842E800010029F5D100BF5E
:105AD00000BF00BF2168083151E8001F21F001001C
